11:34:04.401319 6c:3b:6b:0f:d1:c8 (oui Unknown) > Broadcast, ethertype ARP (0x0806), length 60: Ethernet (len 6), IPv4 (len 4), Request who-has 192.168.1.40 tell 192.168.1.212, length 46
	0x0000:  ffff ffff ffff 6c3b 6b0f d1c8 0806 0001  ......l;k.......
	0x0010:  0800 0604 0001 6c3b 6b0f d1c8 c0a8 01d4  ......l;k.......
	0x0020:  0000 0000 0000 c0a8 0128 0000 0000 0000  .........(......
	0x0030:  0000 0000 0000 0000 0000 0000            ............
11:34:04.401842 08:00:27:d6:7b:61 (oui Unknown) > 84:1b:77:72:a3:8f (oui Unknown), ethertype IPv4 (0x0800), length 198: (tos 0x10, ttl 64, id 38929, offset 0, flags [DF], proto TCP (6), length 184)
    dev1-10.ssh > 192.168.1.50.3616: Flags [P.], cksum 0x84a2 (incorrect -> 0x66fa), seq 2774387132:2774387276, ack 3212640083, win 501, length 144
	0x0000:  841b 7772 a38f 0800 27d6 7b61 0800 4510  ..wr....'.{a..E.
	0x0010:  00b8 9811 4000 4006 1e27 c0a8 0175 c0a8  ....@.@..'...u..
	0x0020:  0132 0016 0e20 a55d c9bc bf7c ff53 5018  .2.....]...|.SP.
	0x0030:  01f5 84a2 0000 1774 9cc5 1687 b12e 3eca  .......t......>.
	0x0040:  5b34 840a c337 e128 123a 6284 ca09 589e  [4...7.(.:b...X.
	0x0050:  f7a8 24c8 bf89 5fb5 5d33 fb84 6cef f9a0  ..$..._.]3..l...
	0x0060:  1fc9 0f28 a890 b7ac d97a b91b ee5f ea12  ...(.....z..._..
	0x0070:  8bf0 c73b d402 06bc 783d 0ded 9ba1 1709  ...;....x=......
	0x0080:  7cf6 c9d6 01ad 0631 55ae 6570 bbcb d764  |......1U.ep...d
	0x0090:  a08d 2766 a48c c858 0829 2d24 8fad 4443  ..'f...X.)-$..DC
	0x00a0:  990a 3c11 2130 cdbe b8ce 194d cc73 f7f0  ..<.!0.....M.s..
	0x00b0:  04e8 e17a d906 94a8 e9bc 1e70 54af 5c2c  ...z.......pT.\,
	0x00c0:  643b 6701 468e                           d;g.F.
11:34:04.420064 6c:3b:6b:0f:d1:c8 (oui Unknown) > Broadcast, ethertype ARP (0x0806), length 60: Ethernet (len 6), IPv4 (len 4), Request who-has 192.168.1.49 tell 192.168.1.212, length 46
	0x0000:  ffff ffff ffff 6c3b 6b0f d1c8 0806 0001  ......l;k.......
	0x0010:  0800 0604 0001 6c3b 6b0f d1c8 c0a8 01d4  ......l;k.......
	0x0020:  0000 0000 0000 c0a8 0131 0000 0000 0000  .........1......
	0x0030:  0000 0000 0000 0000 0000 0000            ............
11:34:04.421271 6c:3b:6b:0f:d1:c8 (oui Unknown) > Broadcast, ethertype ARP (0x0806), length 60: Ethernet (len 6), IPv4 (len 4), Request who-has 192.168.1.108 tell 192.168.1.212, length 46
	0x0000:  ffff ffff ffff 6c3b 6b0f d1c8 0806 0001  ......l;k.......
	0x0010:  0800 0604 0001 6c3b 6b0f d1c8 c0a8 01d4  ......l;k.......
	0x0020:  0000 0000 0000 c0a8 016c 0000 0000 0000  .........l......
	0x0030:  0000 0000 0000 0000 0000 0000            ............
11:34:04.461412 6c:3b:6b:0f:d1:c8 (oui Unknown) > Broadcast, ethertype ARP (0x0806), length 60: Ethernet (len 6), IPv4 (len 4), Request who-has 192.168.1.94 tell 192.168.1.212, length 46
	0x0000:  ffff ffff ffff 6c3b 6b0f d1c8 0806 0001  ......l;k.......
	0x0010:  0800 0604 0001 6c3b 6b0f d1c8 c0a8 01d4  ......l;k.......
	0x0020:  0000 0000 0000 c0a8 015e 0000 0000 0000  .........^......
	0x0030:  0000 0000 0000 0000 0000 0000            ............
11:34:04.471430 6c:3b:6b:0f:d1:c8 (oui Unknown) > Broadcast, ethertype ARP (0x0806), length 60: Ethernet (len 6), IPv4 (len 4), Request who-has 192.168.1.159 tell 192.168.1.212, length 46
	0x0000:  ffff ffff ffff 6c3b 6b0f d1c8 0806 0001  ......l;k.......
	0x0010:  0800 0604 0001 6c3b 6b0f d1c8 c0a8 01d4  ......l;k.......
	0x0020:  0000 0000 0000 c0a8 019f 0000 0000 0000  ................
	0x0030:  0000 0000 0000 0000 0000 0000            ............
11:34:04.491403 6c:3b:6b:0f:d1:c8 (oui Unknown) > Broadcast, ethertype ARP (0x0806), length 60: Ethernet (len 6), IPv4 (len 4), Request who-has 192.168.1.126 tell 192.168.1.212, length 46
	0x0000:  ffff ffff ffff 6c3b 6b0f d1c8 0806 0001  ......l;k.......
	0x0010:  0800 0604 0001 6c3b 6b0f d1c8 c0a8 01d4  ......l;k.......
	0x0020:  0000 0000 0000 c0a8 017e 0000 0000 0000  .........~......
	0x0030:  0000 0000 0000 0000 0000 0000            ............
11:34:04.515013 84:1b:77:72:a3:8f (oui Unknown) > 08:00:27:d6:7b:61 (oui Unknown), ethertype IPv4 (0x0800), length 54: (tos 0x0, ttl 128, id 14506, offset 0, flags [DF], proto TCP (6), length 40)
    192.168.1.50.3616 > dev1-10.ssh: Flags [.], cksum 0xb9ed (correct), ack 0, win 13774, length 0
	0x0000:  0800 27d6 7b61 841b 7772 a38f 0800 4500  ..'.{a..wr....E.
	0x0010:  0028 38aa 4000 8006 3e2e c0a8 0132 c0a8  .(8.@...>....2..
	0x0020:  0175 0e20 0016 bf7c ff53 a55d c9bc 5010  .u.....|.S.]..P.
	0x0030:  35ce b9ed 0000                           5.....
11:34:04.571326 6c:3b:6b:0f:d1:c8 (oui Unknown) > Broadcast, ethertype ARP (0x0806), length 60: Ethernet (len 6), IPv4 (len 4), Request who-has 192.168.1.20 tell 192.168.1.212, length 46
	0x0000:  ffff ffff ffff 6c3b 6b0f d1c8 0806 0001  ......l;k.......
	0x0010:  0800 0604 0001 6c3b 6b0f d1c8 c0a8 01d4  ......l;k.......
	0x0020:  0000 0000 0000 c0a8 0114 0000 0000 0000  ................
	0x0030:  0000 0000 0000 0000 0000 0000            ............
11:34:04.571326 6c:3b:6b:0f:d1:c8 (oui Unknown) > Broadcast, ethertype ARP (0x0806), length 60: Ethernet (len 6), IPv4 (len 4), Request who-has 192.168.1.101 tell 192.168.1.212, length 46
	0x0000:  ffff ffff ffff 6c3b 6b0f d1c8 0806 0001  ......l;k.......
	0x0010:  0800 0604 0001 6c3b 6b0f d1c8 c0a8 01d4  ......l;k.......
	0x0020:  0000 0000 0000 c0a8 0165 0000 0000 0000  .........e......
	0x0030:  0000 0000 0000 0000 0000 0000            ............
11:34:04.634417 6c:3b:6b:0f:d1:c8 (oui Unknown) > Broadcast, ethertype ARP (0x0806), length 60: Ethernet (len 6), IPv4 (len 4), Request who-has 192.168.1.3 tell 192.168.1.212, length 46
	0x0000:  ffff ffff ffff 6c3b 6b0f d1c8 0806 0001  ......l;k.......
	0x0010:  0800 0604 0001 6c3b 6b0f d1c8 c0a8 01d4  ......l;k.......
	0x0020:  0000 0000 0000 c0a8 0103 0000 0000 0000  ................
	0x0030:  0000 0000 0000 0000 0000 0000            ............
11:34:04.658571 84:1b:77:72:a3:8f (oui Unknown) > 08:00:27:d6:7b:61 (oui Unknown), ethertype IPv4 (0x0800), length 54: (tos 0x0, ttl 128, id 14507, offset 0, flags [DF], proto TCP (6), length 40)
    192.168.1.50.3616 > dev1-10.ssh: Flags [.], cksum 0xb95d (correct), ack 144, win 13774, length 0
	0x0000:  0800 27d6 7b61 841b 7772 a38f 0800 4500  ..'.{a..wr....E.
	0x0010:  0028 38ab 4000 8006 3e2d c0a8 0132 c0a8  .(8.@...>-...2..
	0x0020:  0175 0e20 0016 bf7c ff53 a55d ca4c 5010  .u.....|.S.].LP.
	0x0030:  35ce b95d 0000                           5..]..
11:34:04.681310 6c:3b:6b:0f:d1:c8 (oui Unknown) > Broadcast, ethertype ARP (0x0806), length 60: Ethernet (len 6), IPv4 (len 4), Request who-has 192.168.1.109 tell 192.168.1.212, length 46
	0x0000:  ffff ffff ffff 6c3b 6b0f d1c8 0806 0001  ......l;k.......
	0x0010:  0800 0604 0001 6c3b 6b0f d1c8 c0a8 01d4  ......l;k.......
	0x0020:  0000 0000 0000 c0a8 016d 0000 0000 0000  .........m......
	0x0030:  0000 0000 0000 0000 0000 0000            ............
11:34:04.683667 8c:89:a5:6c:2a:4a (oui Unknown) > Broadcast, ethertype ARP (0x0806), length 60: Ethernet (len 6), IPv4 (len 4), Request who-has 192.168.1.19 tell 192.168.1.111, length 46
	0x0000:  ffff ffff ffff 8c89 a56c 2a4a 0806 0001  .........l*J....
	0x0010:  0800 0604 0001 8c89 a56c 2a4a c0a8 016f  .........l*J...o
	0x0020:  0000 0000 0000 c0a8 0113 0000 0000 0000  ................
	0x0030:  0000 0000 0000 0000 0000 0000            ............
11:34:04.781312 6c:3b:6b:0f:d1:c8 (oui Unknown) > Broadcast, ethertype ARP (0x0806), length 60: Ethernet (len 6), IPv4 (len 4), Request who-has 192.168.1.102 tell 192.168.1.212, length 46
	0x0000:  ffff ffff ffff 6c3b 6b0f d1c8 0806 0001  ......l;k.......
	0x0010:  0800 0604 0001 6c3b 6b0f d1c8 c0a8 01d4  ......l;k.......
	0x0020:  0000 0000 0000 c0a8 0166 0000 0000 0000  .........f......
	0x0030:  0000 0000 0000 0000 0000 0000            ............
11:34:04.801321 6c:3b:6b:0f:d1:c8 (oui Unknown) > Broadcast, ethertype ARP (0x0806), length 60: Ethernet (len 6), IPv4 (len 4), Request who-has 192.168.1.107 tell 192.168.1.212, length 46
	0x0000:  ffff ffff ffff 6c3b 6b0f d1c8 0806 0001  ......l;k.......
	0x0010:  0800 0604 0001 6c3b 6b0f d1c8 c0a8 01d4  ......l;k.......
	0x0020:  0000 0000 0000 c0a8 016b 0000 0000 0000  .........k......
	0x0030:  0000 0000 0000 0000 0000 0000            ............
11:34:04.841334 6c:3b:6b:0f:d1:c8 (oui Unknown) > Broadcast, ethertype ARP (0x0806), length 60: Ethernet (len 6), IPv4 (len 4), Request who-has 192.168.1.120 tell 192.168.1.212, length 46
	0x0000:  ffff ffff ffff 6c3b 6b0f d1c8 0806 0001  ......l;k.......
	0x0010:  0800 0604 0001 6c3b 6b0f d1c8 c0a8 01d4  ......l;k.......
	0x0020:  0000 0000 0000 c0a8 0178 0000 0000 0000  .........x......
	0x0030:  0000 0000 0000 0000 0000 0000            ............
11:34:04.884033 6c:3b:6b:0f:d1:c8 (oui Unknown) > Broadcast, ethertype ARP (0x0806), length 60: Ethernet (len 6), IPv4 (len 4), Request who-has 192.168.1.37 tell 192.168.1.212, length 46
	0x0000:  ffff ffff ffff 6c3b 6b0f d1c8 0806 0001  ......l;k.......
	0x0010:  0800 0604 0001 6c3b 6b0f d1c8 c0a8 01d4  ......l;k.......
	0x0020:  0000 0000 0000 c0a8 0125 0000 0000 0000  .........%......
	0x0030:  0000 0000 0000 0000 0000 0000            ............
11:34:04.915663 6c:3b:6b:0f:d1:c8 (oui Unknown) > Broadcast, ethertype ARP (0x0806), length 60: Ethernet (len 6), IPv4 (len 4), Request who-has 192.168.1.103 tell 192.168.1.212, length 46
	0x0000:  ffff ffff ffff 6c3b 6b0f d1c8 0806 0001  ......l;k.......
	0x0010:  0800 0604 0001 6c3b 6b0f d1c8 c0a8 01d4  ......l;k.......
	0x0020:  0000 0000 0000 c0a8 0167 0000 0000 0000  .........g......
	0x0030:  0000 0000 0000 0000 0000 0000            ............
11:34:04.921311 6c:3b:6b:0f:d1:c8 (oui Unknown) > Broadcast, ethertype ARP (0x0806), length 60: Ethernet (len 6), IPv4 (len 4), Request who-has 192.168.1.35 tell 192.168.1.212, length 46
	0x0000:  ffff ffff ffff 6c3b 6b0f d1c8 0806 0001  ......l;k.......
	0x0010:  0800 0604 0001 6c3b 6b0f d1c8 c0a8 01d4  ......l;k.......
	0x0020:  0000 0000 0000 c0a8 0123 0000 0000 0000  .........#......
	0x0030:  0000 0000 0000 0000 0000 0000            ............
11:34:04.933021 00:c0:ee:9c:c8:ba (oui Unknown) > Broadcast, 802.3, length 40: IPX 802.3: 00000000.00:c0:ee:9c:c8:ba.6eb6 > 00000000.ff:ff:ff:ff:ff:ff.0453: ipx-rip-req ffffffff/0.0
	0x0000:  ffff ffff ffff 00c0 ee9c c8ba 0028 ffff  .............(..
	0x0010:  0028 0001 0000 0000 ffff ffff ffff 0453  .(.............S
	0x0020:  0000 0000 00c0 ee9c c8ba 6eb6 0001 ffff  ..........n.....
	0x0030:  ffff 0000 0000 0000 00ff 0000            ............
11:34:04.981297 6c:3b:6b:0f:d1:c8 (oui Unknown) > Broadcast, ethertype ARP (0x0806), length 60: Ethernet (len 6), IPv4 (len 4), Request who-has 192.168.1.5 tell 192.168.1.212, length 46
	0x0000:  ffff ffff ffff 6c3b 6b0f d1c8 0806 0001  ......l;k.......
	0x0010:  0800 0604 0001 6c3b 6b0f d1c8 c0a8 01d4  ......l;k.......
	0x0020:  0000 0000 0000 c0a8 0105 0000 0000 0000  ................
	0x0030:  0000 0000 0000 0000 0000 0000            ............
11:34:05.091496 6c:3b:6b:0f:d1:c8 (oui Unknown) > Broadcast, ethertype ARP (0x0806), length 60: Ethernet (len 6), IPv4 (len 4), Request who-has 192.168.1.36 tell 192.168.1.212, length 46
	0x0000:  ffff ffff ffff 6c3b 6b0f d1c8 0806 0001  ......l;k.......
	0x0010:  0800 0604 0001 6c3b 6b0f d1c8 c0a8 01d4  ......l;k.......
	0x0020:  0000 0000 0000 c0a8 0124 0000 0000 0000  .........$......
	0x0030:  0000 0000 0000 0000 0000 0000            ............
11:34:05.111318 6c:3b:6b:0f:d1:c8 (oui Unknown) > Broadcast, ethertype ARP (0x0806), length 60: Ethernet (len 6), IPv4 (len 4), Request who-has 192.168.1.56 tell 192.168.1.212, length 46
	0x0000:  ffff ffff ffff 6c3b 6b0f d1c8 0806 0001  ......l;k.......
	0x0010:  0800 0604 0001 6c3b 6b0f d1c8 c0a8 01d4  ......l;k.......
	0x0020:  0000 0000 0000 c0a8 0138 0000 0000 0000  .........8......
	0x0030:  0000 0000 0000 0000 0000 0000            ............
11:34:05.166503 6c:3b:6b:0f:d1:c8 (oui Unknown) > Broadcast, ethertype ARP (0x0806), length 60: Ethernet (len 6), IPv4 (len 4), Request who-has 192.168.1.60 tell 192.168.1.212, length 46
	0x0000:  ffff ffff ffff 6c3b 6b0f d1c8 0806 0001  ......l;k.......
	0x0010:  0800 0604 0001 6c3b 6b0f d1c8 c0a8 01d4  ......l;k.......
	0x0020:  0000 0000 0000 c0a8 013c 0000 0000 0000  .........<......
	0x0030:  0000 0000 0000 0000 0000 0000            ............
11:34:05.181307 6c:3b:6b:0f:d1:c8 (oui Unknown) > Broadcast, ethertype ARP (0x0806), length 60: Ethernet (len 6), IPv4 (len 4), Request who-has 192.168.1.66 tell 192.168.1.212, length 46
	0x0000:  ffff ffff ffff 6c3b 6b0f d1c8 0806 0001  ......l;k.......
	0x0010:  0800 0604 0001 6c3b 6b0f d1c8 c0a8 01d4  ......l;k.......
	0x0020:  0000 0000 0000 c0a8 0142 0000 0000 0000  .........B......
	0x0030:  0000 0000 0000 0000 0000 0000            ............
11:34:05.273812 6c:3b:6b:0f:d1:c8 (oui Unknown) > Broadcast, ethertype ARP (0x0806), length 60: Ethernet (len 6), IPv4 (len 4), Request who-has 192.168.1.104 tell 192.168.1.212, length 46
	0x0000:  ffff ffff ffff 6c3b 6b0f d1c8 0806 0001  ......l;k.......
	0x0010:  0800 0604 0001 6c3b 6b0f d1c8 c0a8 01d4  ......l;k.......
	0x0020:  0000 0000 0000 c0a8 0168 0000 0000 0000  .........h......
	0x0030:  0000 0000 0000 0000 0000 0000            ............
11:34:05.281308 6c:3b:6b:0f:d1:c8 (oui Unknown) > Broadcast, ethertype ARP (0x0806), length 60: Ethernet (len 6), IPv4 (len 4), Request who-has 192.168.1.251 tell 192.168.1.212, length 46
	0x0000:  ffff ffff ffff 6c3b 6b0f d1c8 0806 0001  ......l;k.......
	0x0010:  0800 0604 0001 6c3b 6b0f d1c8 c0a8 01d4  ......l;k.......
	0x0020:  0000 0000 0000 c0a8 01fb 0000 0000 0000  ................
	0x0030:  0000 0000 0000 0000 0000 0000            ............
11:34:05.331359 6c:3b:6b:0f:d1:c8 (oui Unknown) > Broadcast, ethertype ARP (0x0806), length 60: Ethernet (len 6), IPv4 (len 4), Request who-has 192.168.1.213 tell 192.168.1.212, length 46
	0x0000:  ffff ffff ffff 6c3b 6b0f d1c8 0806 0001  ......l;k.......
	0x0010:  0800 0604 0001 6c3b 6b0f d1c8 c0a8 01d4  ......l;k.......
	0x0020:  0000 0000 0000 c0a8 01d5 0000 0000 0000  ................
	0x0030:  0000 0000 0000 0000 0000 0000            ............
11:34:05.371391 6c:3b:6b:0f:d1:c8 (oui Unknown) > Broadcast, ethertype ARP (0x0806), length 60: Ethernet (len 6), IPv4 (len 4), Request who-has 192.168.1.140 tell 192.168.1.212, length 46
	0x0000:  ffff ffff ffff 6c3b 6b0f d1c8 0806 0001  ......l;k.......
	0x0010:  0800 0604 0001 6c3b 6b0f d1c8 c0a8 01d4  ......l;k.......
	0x0020:  0000 0000 0000 c0a8 018c 0000 0000 0000  ................
	0x0030:  0000 0000 0000 0000 0000 0000            ............
11:34:05.385976 08:00:27:d6:7b:61 (oui Unknown) > 56:7e:a4:d8:79:25 (oui Unknown), ethertype IPv4 (0x0800), length 85: (tos 0x0, ttl 64, id 65305, offset 0, flags [DF], proto UDP (17), length 71)
    dev1-10.46632 > 192.168.1.11.domain: 44779+ PTR? 40.1.168.192.in-addr.arpa. (43)
	0x0000:  567e a4d8 7925 0800 27d6 7b61 0800 4500  V~..y%..'.{a..E.
	0x0010:  0047 ff19 4000 4011 b7bb c0a8 0175 c0a8  .G..@.@......u..
	0x0020:  010b b628 0035 0033 8415 aeeb 0100 0001  ...(.5.3........
	0x0030:  0000 0000 0000 0234 3001 3103 3136 3803  .......40.1.168.
	0x0040:  3139 3207 696e 2d61 6464 7204 6172 7061  192.in-addr.arpa
	0x0050:  0000 0c00 01                             .....
11:34:05.386848 56:7e:a4:d8:79:25 (oui Unknown) > 08:00:27:d6:7b:61 (oui Unknown), ethertype IPv4 (0x0800), length 85: (tos 0x0, ttl 64, id 13554, offset 0, flags [none], proto UDP (17), length 71)
    192.168.1.11.domain > dev1-10.46632: 44779 NXDomain 0/0/0 (43)
	0x0000:  0800 27d6 7b61 567e a4d8 7925 0800 4500  ..'.{aV~..y%..E.
	0x0010:  0047 34f2 0000 4011 c1e3 c0a8 010b c0a8  .G4...@.........
	0x0020:  0175 0035 b628 0033 192b aeeb 8183 0001  .u.5.(.3.+......
	0x0030:  0000 0000 0000 0234 3001 3103 3136 3803  .......40.1.168.
	0x0040:  3139 3207 696e 2d61 6464 7204 6172 7061  192.in-addr.arpa
	0x0050:  0000 0c00 01                             .....
11:34:05.387075 08:00:27:d6:7b:61 (oui Unknown) > 56:7e:a4:d8:79:25 (oui Unknown), ethertype IPv4 (0x0800), length 86: (tos 0x0, ttl 64, id 65306, offset 0, flags [DF], proto UDP (17), length 72)
    dev1-10.58659 > 192.168.1.11.domain: 39010+ PTR? 212.1.168.192.in-addr.arpa. (44)
	0x0000:  567e a4d8 7925 0800 27d6 7b61 0800 4500  V~..y%..'.{a..E.
	0x0010:  0048 ff1a 4000 4011 b7b9 c0a8 0175 c0a8  .H..@.@......u..
	0x0020:  010b e523 0035 0034 8416 9862 0100 0001  ...#.5.4...b....
	0x0030:  0000 0000 0000 0332 3132 0131 0331 3638  .......212.1.168
	0x0040:  0331 3932 0769 6e2d 6164 6472 0461 7270  .192.in-addr.arp
	0x0050:  6100 000c 0001                           a.....
11:34:05.387815 56:7e:a4:d8:79:25 (oui Unknown) > 08:00:27:d6:7b:61 (oui Unknown), ethertype IPv4 (0x0800), length 86: (tos 0x0, ttl 64, id 13555, offset 0, flags [none], proto UDP (17), length 72)
    192.168.1.11.domain > dev1-10.58659: 39010 NXDomain 0/0/0 (44)
	0x0000:  0800 27d6 7b61 567e a4d8 7925 0800 4500  ..'.{aV~..y%..E.
	0x0010:  0048 34f3 0000 4011 c1e1 c0a8 010b c0a8  .H4...@.........
	0x0020:  0175 0035 e523 0034 bdc7 9862 8183 0001  .u.5.#.4...b....
	0x0030:  0000 0000 0000 0332 3132 0131 0331 3638  .......212.1.168
	0x0040:  0331 3932 0769 6e2d 6164 6472 0461 7270  .192.in-addr.arp
	0x0050:  6100 000c 0001                           a.....
11:34:05.388131 08:00:27:d6:7b:61 (oui Unknown) > 56:7e:a4:d8:79:25 (oui Unknown), ethertype IPv4 (0x0800), length 85: (tos 0x0, ttl 64, id 65307, offset 0, flags [DF], proto UDP (17), length 71)
    dev1-10.41369 > 192.168.1.11.domain: 42926+ PTR? 50.1.168.192.in-addr.arpa. (43)
	0x0000:  567e a4d8 7925 0800 27d6 7b61 0800 4500  V~..y%..'.{a..E.
	0x0010:  0047 ff1b 4000 4011 b7b9 c0a8 0175 c0a8  .G..@.@......u..
	0x0020:  010b a199 0035 0033 8415 a7ae 0100 0001  .....5.3........
	0x0030:  0000 0000 0000 0235 3001 3103 3136 3803  .......50.1.168.
	0x0040:  3139 3207 696e 2d61 6464 7204 6172 7061  192.in-addr.arpa
	0x0050:  0000 0c00 01                             .....
11:34:05.388909 56:7e:a4:d8:79:25 (oui Unknown) > 08:00:27:d6:7b:61 (oui Unknown), ethertype IPv4 (0x0800), length 85: (tos 0x0, ttl 64, id 13556, offset 0, flags [none], proto UDP (17), length 71)
    192.168.1.11.domain > dev1-10.41369: 42926 NXDomain 0/0/0 (43)
	0x0000:  0800 27d6 7b61 567e a4d8 7925 0800 4500  ..'.{aV~..y%..E.
	0x0010:  0047 34f4 0000 4011 c1e1 c0a8 010b c0a8  .G4...@.........
	0x0020:  0175 0035 a199 0033 34f6 a7ae 8183 0001  .u.5...34.......
	0x0030:  0000 0000 0000 0235 3001 3103 3136 3803  .......50.1.168.
	0x0040:  3139 3207 696e 2d61 6464 7204 6172 7061  192.in-addr.arpa
	0x0050:  0000 0c00 01                             .....
11:34:05.389209 08:00:27:d6:7b:61 (oui Unknown) > 56:7e:a4:d8:79:25 (oui Unknown), ethertype IPv4 (0x0800), length 85: (tos 0x0, ttl 64, id 65308, offset 0, flags [DF], proto UDP (17), length 71)
    dev1-10.42553 > 192.168.1.11.domain: 61182+ PTR? 49.1.168.192.in-addr.arpa. (43)
	0x0000:  567e a4d8 7925 0800 27d6 7b61 0800 4500  V~..y%..'.{a..E.
	0x0010:  0047 ff1c 4000 4011 b7b8 c0a8 0175 c0a8  .G..@.@......u..
	0x0020:  010b a639 0035 0033 8415 eefe 0100 0001  ...9.5.3........
	0x0030:  0000 0000 0000 0234 3901 3103 3136 3803  .......49.1.168.
	0x0040:  3139 3207 696e 2d61 6464 7204 6172 7061  192.in-addr.arpa
	0x0050:  0000 0c00 01                             .....
11:34:05.389918 56:7e:a4:d8:79:25 (oui Unknown) > 08:00:27:d6:7b:61 (oui Unknown), ethertype IPv4 (0x0800), length 85: (tos 0x0, ttl 64, id 13557, offset 0, flags [none], proto UDP (17), length 71)
    192.168.1.11.domain > dev1-10.42553: 61182 NXDomain 0/0/0 (43)
	0x0000:  0800 27d6 7b61 567e a4d8 7925 0800 4500  ..'.{aV~..y%..E.
	0x0010:  0047 34f5 0000 4011 c1e0 c0a8 010b c0a8  .G4...@.........
	0x0020:  0175 0035 a639 0033 e006 eefe 8183 0001  .u.5.9.3........
	0x0030:  0000 0000 0000 0234 3901 3103 3136 3803  .......49.1.168.
	0x0040:  3139 3207 696e 2d61 6464 7204 6172 7061  192.in-addr.arpa
	0x0050:  0000 0c00 01                             .....
11:34:05.390111 08:00:27:d6:7b:61 (oui Unknown) > 56:7e:a4:d8:79:25 (oui Unknown), ethertype IPv4 (0x0800), length 86: (tos 0x0, ttl 64, id 65309, offset 0, flags [DF], proto UDP (17), length 72)
    dev1-10.38991 > 192.168.1.11.domain: 9902+ PTR? 108.1.168.192.in-addr.arpa. (44)
	0x0000:  567e a4d8 7925 0800 27d6 7b61 0800 4500  V~..y%..'.{a..E.
	0x0010:  0048 ff1d 4000 4011 b7b6 c0a8 0175 c0a8  .H..@.@......u..
	0x0020:  010b 984f 0035 0034 8416 26ae 0100 0001  ...O.5.4..&.....
	0x0030:  0000 0000 0000 0331 3038 0131 0331 3638  .......108.1.168
	0x0040:  0331 3932 0769 6e2d 6164 6472 0461 7270  .192.in-addr.arp
	0x0050:  6100 000c 0001                           a.....
11:34:05.390788 56:7e:a4:d8:79:25 (oui Unknown) > 08:00:27:d6:7b:61 (oui Unknown), ethertype IPv4 (0x0800), length 86: (tos 0x0, ttl 64, id 13558, offset 0, flags [none], proto UDP (17), length 72)
    192.168.1.11.domain > dev1-10.38991: 9902 NXDomain 0/0/0 (44)
	0x0000:  0800 27d6 7b61 567e a4d8 7925 0800 4500  ..'.{aV~..y%..E.
	0x0010:  0048 34f6 0000 4011 c1de c0a8 010b c0a8  .H4...@.........
	0x0020:  0175 0035 984f 0034 7d4b 26ae 8183 0001  .u.5.O.4}K&.....
	0x0030:  0000 0000 0000 0331 3038 0131 0331 3638  .......108.1.168
	0x0040:  0331 3932 0769 6e2d 6164 6472 0461 7270  .192.in-addr.arp
	0x0050:  6100 000c 0001                           a.....
11:34:05.390942 08:00:27:d6:7b:61 (oui Unknown) > 56:7e:a4:d8:79:25 (oui Unknown), ethertype IPv4 (0x0800), length 85: (tos 0x0, ttl 64, id 65310, offset 0, flags [DF], proto UDP (17), length 71)
    dev1-10.60890 > 192.168.1.11.domain: 58105+ PTR? 94.1.168.192.in-addr.arpa. (43)
	0x0000:  567e a4d8 7925 0800 27d6 7b61 0800 4500  V~..y%..'.{a..E.
	0x0010:  0047 ff1e 4000 4011 b7b6 c0a8 0175 c0a8  .G..@.@......u..
	0x0020:  010b edda 0035 0033 8415 e2f9 0100 0001  .....5.3........
	0x0030:  0000 0000 0000 0239 3401 3103 3136 3803  .......94.1.168.
	0x0040:  3139 3207 696e 2d61 6464 7204 6172 7061  192.in-addr.arpa
	0x0050:  0000 0c00 01                             .....
11:34:05.391676 56:7e:a4:d8:79:25 (oui Unknown) > 08:00:27:d6:7b:61 (oui Unknown), ethertype IPv4 (0x0800), length 85: (tos 0x0, ttl 64, id 13559, offset 0, flags [none], proto UDP (17), length 71)
    192.168.1.11.domain > dev1-10.60890: 58105 NXDomain 0/0/0 (43)
	0x0000:  0800 27d6 7b61 567e a4d8 7925 0800 4500  ..'.{aV~..y%..E.
	0x0010:  0047 34f7 0000 4011 c1de c0a8 010b c0a8  .G4...@.........
	0x0020:  0175 0035 edda 0033 a965 e2f9 8183 0001  .u.5...3.e......
	0x0030:  0000 0000 0000 0239 3401 3103 3136 3803  .......94.1.168.
	0x0040:  3139 3207 696e 2d61 6464 7204 6172 7061  192.in-addr.arpa
	0x0050:  0000 0c00 01                             .....
11:34:05.391896 08:00:27:d6:7b:61 (oui Unknown) > 56:7e:a4:d8:79:25 (oui Unknown), ethertype IPv4 (0x0800), length 86: (tos 0x0, ttl 64, id 65311, offset 0, flags [DF], proto UDP (17), length 72)
    dev1-10.45298 > 192.168.1.11.domain: 22478+ PTR? 159.1.168.192.in-addr.arpa. (44)
	0x0000:  567e a4d8 7925 0800 27d6 7b61 0800 4500  V~..y%..'.{a..E.
	0x0010:  0048 ff1f 4000 4011 b7b4 c0a8 0175 c0a8  .H..@.@......u..
	0x0020:  010b b0f2 0035 0034 8416 57ce 0100 0001  .....5.4..W.....
	0x0030:  0000 0000 0000 0331 3539 0131 0331 3638  .......159.1.168
	0x0040:  0331 3932 0769 6e2d 6164 6472 0461 7270  .192.in-addr.arp
	0x0050:  6100 000c 0001                           a.....
11:34:05.393670 56:7e:a4:d8:79:25 (oui Unknown) > 08:00:27:d6:7b:61 (oui Unknown), ethertype IPv4 (0x0800), length 86: (tos 0x0, ttl 64, id 13560, offset 0, flags [none], proto UDP (17), length 72)
    192.168.1.11.domain > dev1-10.45298: 22478 NXDomain 0/0/0 (44)
	0x0000:  0800 27d6 7b61 567e a4d8 7925 0800 4500  ..'.{aV~..y%..E.
	0x0010:  0048 34f8 0000 4011 c1dc c0a8 010b c0a8  .H4...@.........
	0x0020:  0175 0035 b0f2 0034 2e87 57ce 8183 0001  .u.5...4..W.....
	0x0030:  0000 0000 0000 0331 3539 0131 0331 3638  .......159.1.168
	0x0040:  0331 3932 0769 6e2d 6164 6472 0461 7270  .192.in-addr.arp
	0x0050:  6100 000c 0001                           a.....
11:34:05.393915 08:00:27:d6:7b:61 (oui Unknown) > 56:7e:a4:d8:79:25 (oui Unknown), ethertype IPv4 (0x0800), length 86: (tos 0x0, ttl 64, id 65312, offset 0, flags [DF], proto UDP (17), length 72)
    dev1-10.39481 > 192.168.1.11.domain: 37603+ PTR? 126.1.168.192.in-addr.arpa. (44)
	0x0000:  567e a4d8 7925 0800 27d6 7b61 0800 4500  V~..y%..'.{a..E.
	0x0010:  0048 ff20 4000 4011 b7b3 c0a8 0175 c0a8  .H..@.@......u..
	0x0020:  010b 9a39 0035 0034 8416 92e3 0100 0001  ...9.5.4........
	0x0030:  0000 0000 0000 0331 3236 0131 0331 3638  .......126.1.168
	0x0040:  0331 3932 0769 6e2d 6164 6472 0461 7270  .192.in-addr.arp
	0x0050:  6100 000c 0001                           a.....
11:34:05.394662 56:7e:a4:d8:79:25 (oui Unknown) > 08:00:27:d6:7b:61 (oui Unknown), ethertype IPv4 (0x0800), length 86: (tos 0x0, ttl 64, id 13561, offset 0, flags [none], proto UDP (17), length 72)
    192.168.1.11.domain > dev1-10.39481: 37603 NXDomain 0/0/0 (44)
	0x0000:  0800 27d6 7b61 567e a4d8 7925 0800 4500  ..'.{aV~..y%..E.
	0x0010:  0048 34f9 0000 4011 c1db c0a8 010b c0a8  .H4...@.........
	0x0020:  0175 0035 9a39 0034 0d2e 92e3 8183 0001  .u.5.9.4........
	0x0030:  0000 0000 0000 0331 3236 0131 0331 3638  .......126.1.168
	0x0040:  0331 3932 0769 6e2d 6164 6472 0461 7270  .192.in-addr.arp
	0x0050:  6100 000c 0001                           a.....
11:34:05.394942 08:00:27:d6:7b:61 (oui Unknown) > 56:7e:a4:d8:79:25 (oui Unknown), ethertype IPv4 (0x0800), length 85: (tos 0x0, ttl 64, id 65313, offset 0, flags [DF], proto UDP (17), length 71)
    dev1-10.49675 > 192.168.1.11.domain: 1506+ PTR? 20.1.168.192.in-addr.arpa. (43)
	0x0000:  567e a4d8 7925 0800 27d6 7b61 0800 4500  V~..y%..'.{a..E.
	0x0010:  0047 ff21 4000 4011 b7b3 c0a8 0175 c0a8  .G.!@.@......u..
	0x0020:  010b c20b 0035 0033 8415 05e2 0100 0001  .....5.3........
	0x0030:  0000 0000 0000 0232 3001 3103 3136 3803  .......20.1.168.
	0x0040:  3139 3207 696e 2d61 6464 7204 6172 7061  192.in-addr.arpa
	0x0050:  0000 0c00 01                             .....
11:34:05.395352 08:00:27:d6:7b:61 (oui Unknown) > 84:1b:77:72:a3:8f (oui Unknown), ethertype IPv4 (0x0800), length 2974: (tos 0x10, ttl 64, id 38930, offset 0, flags [DF], proto TCP (6), length 2960)
    dev1-10.ssh > 192.168.1.50.3616: Flags [P.], cksum 0x8f7a (incorrect -> 0x6763), seq 144:3064, ack 1, win 501, length 2920
	0x0000:  841b 7772 a38f 0800 27d6 7b61 0800 4510  ..wr....'.{a..E.
	0x0010:  0b90 9812 4000 4006 134e c0a8 0175 c0a8  ....@.@..N...u..
	0x0020:  0132 0016 0e20 a55d ca4c bf7c ff53 5018  .2.....].L.|.SP.
	0x0030:  01f5 8f7a 0000 c28b a6a9 366c 96fd 883e  ...z......6l...>
	0x0040:  947b 8c71 3133 237b 4360 a11c d2bf a39a  .{.q13#{C`......
	0x0050:  0b73 9726 e722 657e 5da9 27aa e3b3 1907  .s.&."e~].'.....
	0x0060:  7e79 a199 d8ce 94ec 9538 e4f7 bc58 0c94  ~y.......8...X..
	0x0070:  aeb6 5eca 08ea a9b6 18c0 2fbb f081 d9e2  ..^......./.....
	0x0080:  b2ef 714d 0e1a 14a3 5ff8 07c3 9358 a8b2  ..qM...._....X..
	0x0090:  868c f2e2 ac75 da0f 213e 8bd9 d27b ab84  .....u..!>...{..
	0x00a0:  625f 9345 bd4c b37e b60e 9c41 e869 623f  b_.E.L.~...A.ib?
	0x00b0:  9025 75da 786d 5743 177c fbb5 f635 948a  .%u.xmWC.|...5..
	0x00c0:  663d b1a6 0cfb 7a83 9a57 507a 5068 5e8f  f=....z..WPzPh^.
	0x00d0:  fa57 bcb6 df95 99bb acde 77f4 c6fb 8e44  .W........w....D
	0x00e0:  6ddd af0b 1d6f 454e d666 a84c 3309 d466  m....oEN.f.L3..f
	0x00f0:  163d bac2 66c7 4f55 5169 9a0b db48 bcfb  .=..f.OUQi...H..
	0x0100:  377f 8578 4346 82fd f9bd eece 85a5 6dcb  7..xCF........m.
	0x0110:  9728 e1e1 32c6 09f6 6438 8455 708b c1fc  .(..2...d8.Up...
	0x0120:  5b97 c94d 77f7 c0c7 146f aed2 2907 f19a  [..Mw....o..)...
	0x0130:  6585 60be ad40 a1b1 8bf5 ff02 5611 4c8c  e.`..@......V.L.
	0x0140:  62b2 3b2a a526 6741 2e76 f41d e340 3d9e  b.;*.&gA.v...@=.
	0x0150:  326f 62ef 81e8 379f 979a ce2a 7b2d 14f2  2ob...7....*{-..
	0x0160:  f657 eccb 87da 0852 ba5a f8dd 37e2 05cf  .W.....R.Z..7...
	0x0170:  42d2 2d80 0f34 60f4 7b77 9775 b541 113b  B.-..4`.{w.u.A.;
	0x0180:  9adf dced 0d91 9b7f eafa e05c 09e5 eb85  ...........\....
	0x0190:  762d dbdb 1b78 7f5a bad5 c739 e9ad 218b  v-...x.Z...9..!.
	0x01a0:  0145 3c44 c888 3cc3 ea18 4f03 38dc c705  .E<D..<...O.8...
	0x01b0:  afd2 9dd7 9a62 2352 5e95 9dd0 60d7 8f90  .....b#R^...`...
	0x01c0:  2e7b c3f6 9b3f a46a cfc8 d996 256f b01d  .{...?.j....%o..
	0x01d0:  2c57 07ed c078 39fc 7153 f7db 2043 bd50  ,W...x9.qS...C.P
	0x01e0:  8c98 5001 5587 3b2a ad04 016a 7921 c68c  ..P.U.;*...jy!..
	0x01f0:  179d 8fc4 4cc2 65ac 7de5 370f 1c46 0ec2  ....L.e.}.7..F..
	0x0200:  4b23 35b2 25a0 b7f7 ffab 05b5 95e8 3615  K#5.%.........6.
	0x0210:  b39d 32b0 1f7a e8c3 4df0 f87e 9eb4 b4f8  ..2..z..M..~....
	0x0220:  441c 8962 7060 29cc cada 3a0c 07f7 d609  D..bp`)...:.....
	0x0230:  c848 43f9 769b ab8b 8062 cefa f2bc 1fa6  .HC.v....b......
	0x0240:  6ad8 a293 d450 f1f0 33a3 4c0e bb2a b035  j....P..3.L..*.5
	0x0250:  bab4 b452 1166 e5c2 8be7 f478 5e82 8af2  ...R.f.....x^...
	0x0260:  7443 e32a 6933 7c26 b142 36fb caa2 aea2  tC.*i3|&.B6.....
	0x0270:  09f3 f9ec 8cdd 751e 2b36 39d5 4819 c1c9  ......u.+69.H...
	0x0280:  f1f5 1dae 8cf0 f83d e5fd bca9 531d 1ce8  .......=....S...
	0x0290:  f4c7 d108 c2ae bd98 f078 2a94 8a33 be70  .........x*..3.p
	0x02a0:  250e 3d49 a545 8e3d 3c70 9050 8c01 7c0e  %.=I.E.=<p.P..|.
	0x02b0:  96f7 b066 dde7 2d75 2770 19f2 5483 0d9b  ...f..-u'p..T...
	0x02c0:  e7de 4b3c ebbc 8fd2 d6f4 0df2 c515 0f66  ..K<...........f
	0x02d0:  ac6f b481 4151 8215 3014 15f6 bfea eb10  .o..AQ..0.......
	0x02e0:  16f9 4ca7 edd3 da60 dc4c 7b98 6002 daaf  ..L....`.L{.`...
	0x02f0:  2a63 2898 7445 4f38 6246 e602 59ae eacf  *c(.tEO8bF..Y...
	0x0300:  7e97 03b0 8746 c1f4 d2e8 fefe 0ea8 6a49  ~....F........jI
	0x0310:  c46c 3468 bc45 2e3c 093f 8bae c801 0ed8  .l4h.E.<.?......
	0x0320:  e7a0 58c7 3202 6ec1 1d42 ea27 b3d3 8641  ..X.2.n..B.'...A
	0x0330:  6de9 cbf4 dd74 9933 7942 f0d3 bf13 cd9d  m....t.3yB......
	0x0340:  06f4 83b4 2577 0f10 acf0 64f6 c050 4afb  ....%w....d..PJ.
	0x0350:  5871 38c3 d2f9 8fff 2627 6aaf abff 3f74  Xq8.....&'j...?t
	0x0360:  a9e7 a2fb f558 39aa 7724 44bc ef3e b95c  .....X9.w$D..>.\
	0x0370:  e466 4def 97aa 15f2 7d5a b9f4 2609 bef6  .fM.....}Z..&...
	0x0380:  fb56 b8b8 75f7 fd1d 6ac9 b18c 446a 529d  .V..u...j...DjR.
	0x0390:  53dd 5606 a54b 959f a26b 6a37 c7a8 6517  S.V..K...kj7..e.
	0x03a0:  3c21 a151 de5a 3c32 94e3 4f98 c747 5a07  <!.Q.Z<2..O..GZ.
	0x03b0:  b204 2052 8a67 95e3 8235 509c 6b7e 2d25  ...R.g...5P.k~-%
	0x03c0:  a862 f74e 6065 eaf9 f87f 985a 70f1 7e30  .b.N`e.....Zp.~0
	0x03d0:  711a 8c33 bf6d c64f 8759 5d7f fb37 46f1  q..3.m.O.Y]..7F.
	0x03e0:  3a00 5918 70a5 1a95 a2d6 9c10 a47e bb45  :.Y.p........~.E
	0x03f0:  b2de 9719 c61b 960d 9e44 bdba 3473 047a  .........D..4s.z
	0x0400:  5b84 857a 79d4 b45d 34fa 6e2c 8e12 1a79  [..zy..]4.n,...y
	0x0410:  a4bf 2076 0cb7 5639 6811 f5d9 9831 38cf  ...v..V9h....18.
	0x0420:  57fd 6bf1 6a89 5e3a 602b 01ab be46 2582  W.k.j.^:`+...F%.
	0x0430:  95a4 32b3 fb61 8144 943c dd20 b06a fbae  ..2..a.D.<...j..
	0x0440:  0812 2dbb 8a00 44d0 041a 351f 3c79 d2c4  ..-...D...5.<y..
	0x0450:  066f 1143 df1d bdad e3bb 0e43 7bdf fffb  .o.C.......C{...
	0x0460:  20c1 35e9 fa43 9581 86b5 eaef e907 4ff6  ..5..C........O.
	0x0470:  9396 f614 15c6 2907 0e74 13bf aa51 be03  ......)..t...Q..
	0x0480:  9f9d bf71 f163 16c4 0acb eb17 9cdd 5a3f  ...q.c........Z?
	0x0490:  b511 35f4 acff 6fc9 9624 46d8 2af2 6592  ..5...o..$F.*.e.
	0x04a0:  4120 375c b72a cfbe e4f5 5037 ac7d abb8  A.7\.*....P7.}..
	0x04b0:  2bdc 2f81 4e0f f389 cc5b 59ab 210e 1da0  +./.N....[Y.!...
	0x04c0:  3e1a a43c 44e0 0ba3 fbab 03bc 6aef dc60  >..<D.......j..`
	0x04d0:  d836 6520 dbfc 4764 6638 1bd5 2f25 3b04  .6e...Gdf8../%;.
	0x04e0:  be3d 5256 b050 c443 e917 fd03 32fb 8d94  .=RV.P.C....2...
	0x04f0:  b992 0b01 c693 503f a8a5 5518 4ad4 c53c  ......P?..U.J..<
	0x0500:  47db e22d 24db 8074 db85 d57f 3590 f267  G..-$..t....5..g
	0x0510:  23c5 a8c0 29c1 cfe3 f044 47da a575 a940  #...)....DG..u.@
	0x0520:  8e5f 973a 1f3a 6677 95c0 58a8 2ecc 6b84  ._.:.:fw..X...k.
	0x0530:  cee2 3330 0ecc 3ca3 9c89 4f92 75fd d37f  ..30..<...O.u...
	0x0540:  22a8 b6b1 35f7 cecd c6d0 7e0b d27b 3991  "...5.....~..{9.
	0x0550:  5bb1 4457 1585 f9a1 93eb b310 289a 468b  [.DW........(.F.
	0x0560:  e319 1914 1f8b cf6b 7c02 b22d e410 c728  .......k|..-...(
	0x0570:  dd02 2929 7806 290f c33b 01e5 1323 d156  ..))x.)..;...#.V
	0x0580:  dd0e 8659 f63c 49d6 ba4e 6d83 4f87 c5c6  ...Y.<I..Nm.O...
	0x0590:  65f1 f295 0ea2 bfd8 44d0 6430 aaae 4c67  e.......D.d0..Lg
	0x05a0:  baf8 c360 473b 8bf5 0b04 4984 d9d2 bec8  ...`G;....I.....
	0x05b0:  7dc7 c8f5 4d6f bf8e 19f3 6c29 7dc1 2def  }...Mo....l)}.-.
	0x05c0:  a61d cf86 c5fb 1c9e 8aa3 8da8 c37f 0f14  ................
	0x05d0:  61c9 43dd 5561 f0c6 b2f1 221f 3e48 7b7a  a.C.Ua....".>H{z
	0x05e0:  a6b7 973b 7ead 88a2 c4ff 2695 5dbc bf79  ...;~.....&.]..y
	0x05f0:  44b1 b49a bdb2 8b99 42a3 ccbc b872 405e  D.......B....r@^
	0x0600:  25e5 ce97 bef2 02a3 8f93 13de 64d5 3d5b  %...........d.=[
	0x0610:  d5e9 3c3b bd1b c556 c26f 0bbe 92f4 0c3a  ..<;...V.o.....:
	0x0620:  d6d0 12c6 153e 65f6 1eca 3f76 8d4b ab95  .....>e...?v.K..
	0x0630:  bd8b 92b6 f415 d8e7 219a de92 5937 5624  ........!...Y7V$
	0x0640:  e478 6f88 b7e2 df54 3def b382 1331 ed6a  .xo....T=....1.j
	0x0650:  93ec b4a2 0653 264b d648 3f38 435e fd65  .....S&K.H?8C^.e
	0x0660:  d2cf 5eb5 3280 e57f f4f1 0688 dcfa c95c  ..^.2..........\
	0x0670:  417b afdc 34fd 093d 7af0 cc36 0345 07b1  A{..4..=z..6.E..
	0x0680:  a7cd 2872 5c99 47fa 8fe6 0681 9bd3 5466  ..(r\.G.......Tf
	0x0690:  9284 91af 7a35 34bd 97de 18a1 7ab2 b6e8  ....z54.....z...
	0x06a0:  65ad a72d 7ecf 73c8 012f d7f7 8d71 a3ec  e..-~.s../...q..
	0x06b0:  03a9 63a6 b1d6 3835 886f 4b62 06e7 fcd6  ..c...85.oKb....
	0x06c0:  4674 b477 6251 41a0 591e 255f 1c72 610c  Ft.wbQA.Y.%_.ra.
	0x06d0:  e3f0 5acc 1b3c b986 aa91 e448 1949 cbd9  ..Z..<.....H.I..
	0x06e0:  bffb 04d2 9460 54d5 8fb8 e81c 2cdb 4890  .....`T.....,.H.
	0x06f0:  92c8 19eb 8a8f d96e 9fd5 e229 b694 5bc7  .......n...)..[.
	0x0700:  c529 d18d e9e0 b8fd 1295 2a3f 5564 17ec  .)........*?Ud..
	0x0710:  0cb6 5d68 3ded 26cd 2030 fc45 3eb3 27a5  ..]h=.&..0.E>.'.
	0x0720:  fe24 42a4 4b21 3188 255e 35ca d777 f465  .$B.K!1.%^5..w.e
	0x0730:  f647 55c9 eff0 f154 b583 21ed 3266 4f22  .GU....T..!.2fO"
	0x0740:  e1cf 155c 9ff8 25af adbb 9a4c e3ad 3378  ...\..%....L..3x
	0x0750:  e04c 345b 6512 5c3a 318b 3332 dc29 150b  .L4[e.\:1.32.)..
	0x0760:  7b82 6f78 c7e7 d66a 8fd5 605b 998d 2d1b  {.ox...j..`[..-.
	0x0770:  73bb 7a66 5c3c b830 dffc 05d2 97a9 14f6  s.zf\<.0........
	0x0780:  41ac ca76 ec63 15cb ee80 b78f 7019 71f5  A..v.c......p.q.
	0x0790:  28eb 5eef 999f 9c47 f2d0 6b9c a10e 6e07  (.^....G..k...n.
	0x07a0:  ee18 f260 d971 44a7 4010 fe9a 352e 064c  ...`.qD.@...5..L
	0x07b0:  52bf 1505 4aee 59e8 375b 3ce2 16ed 68e9  R...J.Y.7[<...h.
	0x07c0:  b57a 2869 ee7a f992 3b0e 9d4f ab0c 3c21  .z(i.z..;..O..<!
	0x07d0:  4944 8444 8d87 ea74 5f56 655a cabd 447a  ID.D...t_VeZ..Dz
	0x07e0:  f27c 523d c2dc 7b9f 5248 f606 666c 5c18  .|R=..{.RH..fl\.
	0x07f0:  613f d1d8 6473 2a40 f5d0 22db 7719 3f87  a?..ds*@..".w.?.
	0x0800:  6050 30a9 f065 e3f5 e03a 5e03 7bce 2041  `P0..e...:^.{..A
	0x0810:  2363 a0fe b0ee 5884 5d35 de54 7e84 4ba9  #c....X.]5.T~.K.
	0x0820:  ede2 da29 1b6d 185b aa36 ba0e d278 cf3d  ...).m.[.6...x.=
	0x0830:  c22b a383 8ebc 9ba5 9b57 1fa7 ce4f 7fa9  .+.......W...O..
	0x0840:  7031 15b8 f6c5 4acc a658 638f 9ba5 0793  p1....J..Xc.....
	0x0850:  0f0f 38d3 ea83 a7b9 a8d8 20d8 a6a7 4ee1  ..8...........N.
	0x0860:  087e 8af9 c47b 6ca1 0b51 8146 67e1 724f  .~...{l..Q.Fg.rO
	0x0870:  d341 47d9 9929 4a3c d41d 80f2 2b39 44a2  .AG..)J<....+9D.
	0x0880:  e08d 1096 a96d e417 b470 737a 9e06 cea3  .....m...psz....
	0x0890:  331b 450f 9cac dd3a cfc7 1563 b39d c517  3.E....:...c....
	0x08a0:  dcb7 4a41 42dc 40f9 d417 aacb 8dc4 bf9b  ..JAB.@.........
	0x08b0:  ddcf 3c7e 02cb 75dd 4440 e4e9 02f5 22fc  ..<~..u.D@....".
	0x08c0:  4171 ac64 41e2 9adb fafd a692 4e9b 9923  Aq.dA.......N..#
	0x08d0:  36b5 f521 a913 ebdc 24cf 483f 117c 53ec  6..!....$.H?.|S.
	0x08e0:  8737 cf34 3c6a 52fe e3b8 01fe f2e4 0fbc  .7.4<jR.........
	0x08f0:  e6c6 7aef 8fea f881 db7d c8d4 a389 a2eb  ..z......}......
	0x0900:  26c8 8fa8 18c9 88ee e319 5701 3138 f79d  &.........W.18..
	0x0910:  893f a737 2b1b 24c1 4aff b3a8 ee84 0387  .?.7+.$.J.......
	0x0920:  c29b e6c2 9c9a 4e4c 0a92 4272 2f84 0eb9  ......NL..Br/...
	0x0930:  4a58 20c2 6ceb a058 5281 19fc f328 6522  JX..l..XR....(e"
	0x0940:  b9b1 4960 5a81 30e4 7786 a65a 7798 af94  ..I`Z.0.w..Zw...
	0x0950:  ea96 b28b 149c a235 ada7 c167 df36 64aa  .......5...g.6d.
	0x0960:  0638 f240 7a97 50cb 3714 aa50 4883 515d  .8.@z.P.7..PH.Q]
	0x0970:  0329 770b 13ca eee2 913e a10d 9211 7a4b  .)w......>....zK
	0x0980:  368a 37fb 3ccf 8a2a 6e50 02da d019 f8da  6.7.<..*nP......
	0x0990:  7bd9 6e7e 1182 b4d2 a5da 698d 06e6 aa94  {.n~......i.....
	0x09a0:  47d4 b948 3033 96a7 dd11 b571 c083 ab69  G..H03.....q...i
	0x09b0:  1e27 aa0d 30dd 416b 3c81 f255 3afe c995  .'..0.Ak<..U:...
	0x09c0:  81b8 383d 7670 1a8c ec04 ff45 941d eca9  ..8=vp.....E....
	0x09d0:  cc46 d5b9 4e90 1538 e74e 8b8a d398 f1a0  .F..N..8.N......
	0x09e0:  5041 8d10 8828 a99b 59a0 81a1 5a3f f2ef  PA...(..Y...Z?..
	0x09f0:  d640 3c00 c7dc 796f 3309 0250 c05e 7e32  .@<...yo3..P.^~2
	0x0a00:  5f27 a7f3 0051 5309 ea66 17b7 2415 5827  _'...QS..f..$.X'
	0x0a10:  2bbe 4b7c 2c6b 7a22 b758 09e2 688b 346b  +.K|,kz".X..h.4k
	0x0a20:  7797 0a5c 35cd e6fd 7e64 e405 4bb8 fe4c  w..\5...~d..K..L
	0x0a30:  cad6 728d 1f77 964c 8028 4d54 9d03 a42b  ..r..w.L.(MT...+
	0x0a40:  e59e 70a3 684e d5f3 9503 400e 31a4 9da6  ..p.hN....@.1...
	0x0a50:  08a0 3a7e 7a51 0e5a 1624 315b b484 a44a  ..:~zQ.Z.$1[...J
	0x0a60:  69d8 a428 db5d 2589 d1fd ea97 3675 45f8  i..(.]%.....6uE.
	0x0a70:  bed8 acf8 154a b7e6 046f 0aab e479 1092  .....J...o...y..
	0x0a80:  b005 1f98 a6fb 8fb7 fb9b 79aa 7b52 1270  ..........y.{R.p
	0x0a90:  4c18 e17e 718d 62a6 2b4e 7d10 78c8 979e  L..~q.b.+N}.x...
	0x0aa0:  8eb5 fe7f 41c8 0ec7 280f 6e3b 974e a404  ....A...(.n;.N..
	0x0ab0:  f691 5440 b6a3 9403 fa72 be91 4d41 5156  ..T@.....r..MAQV
	0x0ac0:  a629 829c d54d d5a5 c301 f338 d138 ba8b  .)...M.....8.8..
	0x0ad0:  6d8e c97f 1072 9726 8b96 6edc 3ab8 fca4  m....r.&..n.:...
	0x0ae0:  b5a6 758c 6bf9 5065 921f e168 9cb1 b9cd  ..u.k.Pe...h....
	0x0af0:  5e50 1cf5 93d1 c0fa ce1b 371f 95ae f631  ^P........7....1
	0x0b00:  9e79 dbbf 8ad5 77a7 d9e4 97e9 2196 9fdb  .y....w.....!...
	0x0b10:  6433 8994 b064 44db 7d5b d3ca fdf3 810b  d3...dD.}[......
	0x0b20:  73cb dea1 a6af 5b2e f228 17ba 98fc 5a3a  s.....[..(....Z:
	0x0b30:  5df9 63ba 01d0 7f54 6658 55c5 67ee dc0b  ].c....TfXU.g...
	0x0b40:  6005 a1a7 c58d a805 c6a2 8f96 9bfe f4e6  `...............
	0x0b50:  e703 b258 d833 e2f7 153f 0b4f df66 5456  ...X.3...?.O.fTV
	0x0b60:  f76a 83e0 0733 9a5a c2f6 284b ad3e 2f8c  .j...3.Z..(K.>/.
	0x0b70:  8102 8f4f eb27 7c1c 6ea1 8d43 b2ce 0cb9  ...O.'|.n..C....
	0x0b80:  658e a11f 8649 7377 53e9 df51 9947 fbfe  e....IswS..Q.G..
	0x0b90:  6a7b a571 89d7 c660 fe1c 4da6 a894       j{.q...`..M...
11:34:05.395371 08:00:27:d6:7b:61 (oui Unknown) > 84:1b:77:72:a3:8f (oui Unknown), ethertype IPv4 (0x0800), length 1294: (tos 0x10, ttl 64, id 38932, offset 0, flags [DF], proto TCP (6), length 1280)
    dev1-10.ssh > 192.168.1.50.3616: Flags [P.], cksum 0x88ea (incorrect -> 0xbba4), seq 3064:4304, ack 1, win 501, length 1240
	0x0000:  841b 7772 a38f 0800 27d6 7b61 0800 4510  ..wr....'.{a..E.
	0x0010:  0500 9814 4000 4006 19dc c0a8 0175 c0a8  ....@.@......u..
	0x0020:  0132 0016 0e20 a55d d5b4 bf7c ff53 5018  .2.....]...|.SP.
	0x0030:  01f5 88ea 0000 3c11 330a b6fb 8b57 6c3c  ......<.3....Wl<
	0x0040:  4fd5 dc92 6e64 6a4a f954 8f24 ea57 a336  O...ndjJ.T.$.W.6
	0x0050:  f027 e0de b4da 9bf4 1cb8 4894 ac23 9d70  .'........H..#.p
	0x0060:  b71f 19a6 447f fc9d 7999 2439 3032 b9b9  ....D...y.$902..
	0x0070:  d1ba 5203 34d2 6708 7646 f065 49d6 3ee8  ..R.4.g.vF.eI.>.
	0x0080:  a936 1bcd c6c0 7a64 f3c9 564c afa5 8d97  .6....zd..VL....
	0x0090:  4a20 e248 ada7 2131 c3b0 9179 9214 3263  J..H..!1...y..2c
	0x00a0:  2820 6e3a 7d9c e8da 764e b551 5a3a fa91  (.n:}...vN.QZ:..
	0x00b0:  6c1c dc72 652d a029 86a7 aa2a 4e67 3afa  l..re-.)...*Ng:.
	0x00c0:  87c0 9b5b d733 acfb 6a14 091e 4385 1c49  ...[.3..j...C..I
	0x00d0:  1e2e 94a1 4a3d 8dab 417b 4f60 5c57 04ee  ....J=..A{O`\W..
	0x00e0:  e237 2332 f6f8 93df d9b6 b6c1 6b59 1bcb  .7#2........kY..
	0x00f0:  c3d6 7ad6 d5f3 46cb 67e8 0d83 6243 359e  ..z...F.g...bC5.
	0x0100:  3fc9 623d 4b40 9e58 77cf 1124 8451 de30  ?.b=K@.Xw..$.Q.0
	0x0110:  9790 2a81 9776 4d22 dda7 c261 e5c3 4df7  ..*..vM"...a..M.
	0x0120:  faaf 267d fdd8 3871 e47c f565 3ced 79dc  ..&}..8q.|.e<.y.
	0x0130:  384f 52bd 67f2 e0c8 4de3 ceee fa1d bde0  8OR.g...M.......
	0x0140:  eb1e 765d 61b7 83e5 7b8c c0c0 87a9 07a9  ..v]a...{.......
	0x0150:  c258 d8d4 c6a9 3639 f1ab 7f2f 8354 c5bc  .X....69.../.T..
	0x0160:  1bae 0339 0651 4617 04f1 29c0 8ba8 da63  ...9.QF...)....c
	0x0170:  a46a 8595 db8f ecfe f4a3 6a19 6de8 91bf  .j........j.m...
	0x0180:  d19e e4d8 4b30 7223 cd90 1e66 1d0c cd13  ....K0r#...f....
	0x0190:  dbaf 34a8 99eb a539 cceb 3ab3 f2e8 dbc8  ..4....9..:.....
	0x01a0:  541f 34d3 09f7 05ea 0ac2 5d66 f65e ee42  T.4.......]f.^.B
	0x01b0:  8847 4b3e 8186 6111 5a01 0f36 35e5 d876  .GK>..a.Z..65..v
	0x01c0:  a313 69bc c8a2 20d2 14b0 78c9 1fb3 339f  ..i.......x...3.
	0x01d0:  bc0a 33f1 b488 d9c0 9471 0c7a 3f77 43fc  ..3......q.z?wC.
	0x01e0:  a69b 455c 8b1e f2e2 c697 9f59 078b 7560  ..E\.......Y..u`
	0x01f0:  995f bdbb 44d2 6211 d838 e9b4 312b 563d  ._..D.b..8..1+V=
	0x0200:  6179 c75c df03 6ca7 46fc d929 ea6f de59  ay.\..l.F..).o.Y
	0x0210:  ca52 9685 eb13 32c9 69b2 e782 5b4f abd2  .R....2.i...[O..
	0x0220:  944f 111b 1f6c 9e04 9ed3 f4da 5297 f679  .O...l......R..y
	0x0230:  244b 16df 1796 478b a1dd 2177 c845 c2cf  $K....G...!w.E..
	0x0240:  6512 c2a9 2693 1d90 f37c d42d 0419 5315  e...&....|.-..S.
	0x0250:  6710 7e87 f45a 65eb ab51 9d92 a096 b2fd  g.~..Ze..Q......
	0x0260:  b2f9 36ca cf82 adbd 7f4f fec9 0de6 7dc2  ..6......O....}.
	0x0270:  ea62 dc45 94bb 090f ddf8 ce84 0866 18a6  .b.E.........f..
	0x0280:  d85f 9e2a 7d9e 3456 b87b 5a41 3118 5572  ._.*}.4V.{ZA1.Ur
	0x0290:  7210 a01e 9fd6 3d4a fed2 8f7d d6b7 9032  r.....=J...}...2
	0x02a0:  38f3 6e06 2304 66e7 c19f 4b9b 7af6 9e1e  8.n.#.f...K.z...
	0x02b0:  ed44 a4cd f99f d345 3cb2 7231 938b fc84  .D.....E<.r1....
	0x02c0:  8355 94a7 e7bc fe4b ae23 d9e7 8f30 9d9a  .U.....K.#...0..
	0x02d0:  6f23 6a92 e449 913a b33a 1025 0b41 086b  o#j..I.:.:.%.A.k
	0x02e0:  e1b7 5d0c 6960 ab2a 2d4d fb27 37db 908d  ..].i`.*-M.'7...
	0x02f0:  19a8 7e9f fdce d456 fc74 4e86 2ec8 750c  ..~....V.tN...u.
	0x0300:  091a 0603 1629 1992 048f 127b 8563 6548  .....).....{.ceH
	0x0310:  bde5 e5c8 08ba 5423 b119 193d 88e8 d100  ......T#...=....
	0x0320:  3d87 eeaa 6bdf e08a 1604 f01f 7be8 ac6f  =...k.......{..o
	0x0330:  8396 3a44 62a0 99d2 4cad d7f8 e7f1 7ce3  ..:Db...L.....|.
	0x0340:  101f a62a 22ed d89d cab8 2838 ea08 d94f  ...*".....(8...O
	0x0350:  12fd e6ca 998b 017f 4f3e 24db e86c 851f  ........O>$..l..
	0x0360:  de60 1e53 3645 ea00 4da8 3b45 d096 5071  .`.S6E..M.;E..Pq
	0x0370:  3dd5 a672 0ef4 6839 3d21 62c8 2a13 46b0  =..r..h9=!b.*.F.
	0x0380:  dbd3 6317 4684 dc58 5364 32ef f196 ebca  ..c.F..XSd2.....
	0x0390:  bbbf 1e16 a34b ec8e 090d 3700 10c5 bc91  .....K....7.....
	0x03a0:  5cc8 fa86 c3c7 c9cb 3769 b031 919c 595b  \.......7i.1..Y[
	0x03b0:  766d cd3b 01e0 bbe6 7d4f 98cc 670a 0d8b  vm.;....}O..g...
	0x03c0:  410d 8157 6113 ecd1 1f66 34b0 6640 3ae6  A..Wa....f4.f@:.
	0x03d0:  4358 e3bc 714c 5e98 d4ee ebc5 4dde 39ba  CX..qL^.....M.9.
	0x03e0:  d52a c9c6 c3de 5e85 f95c 41b8 b85f 6430  .*....^..\A.._d0
	0x03f0:  3f2e d58c 1e58 24d2 82af 1f23 e8d8 cfa1  ?....X$....#....
	0x0400:  01cf e94f 38ea 7d65 194c ad64 cc50 4f1b  ...O8.}e.L.d.PO.
	0x0410:  3752 95aa 30ae fbf5 404e 2a29 4f29 631f  7R..0...@N*)O)c.
	0x0420:  d5a3 d711 f2e6 6040 67c9 4bfd 646b 2988  ......`@g.K.dk).
	0x0430:  076b b042 1521 2748 4fb3 026a 47ef 54b1  .k.B.!'HO..jG.T.
	0x0440:  7414 9d92 f1f1 dff8 b3cd 843e 0c81 3cb8  t..........>..<.
	0x0450:  a876 4cf1 d43e 5b3e 3575 5105 9799 f79a  .vL..>[>5uQ.....
	0x0460:  6089 3a63 0e20 a364 1375 05fa 3db7 f4d0  `.:c...d.u..=...
	0x0470:  2d23 266b 0a82 94ae b002 c224 68b1 defd  -#&k.......$h...
	0x0480:  6123 6454 b817 04ef 6ffb 5ff4 de19 c40a  a#dT....o._.....
	0x0490:  19a0 dc3a 8195 f76f d3c1 3ca7 88eb 39fc  ...:...o..<...9.
	0x04a0:  1d1e bc64 82b7 999c 935a ae47 220a d9f5  ...d.....Z.G"...
	0x04b0:  889e d563 fab8 dc2d ed27 d6ed 1984 f1a0  ...c...-.'......
	0x04c0:  1678 1d32 5417 b1a5 7530 c39b 2e3a 76f8  .x.2T...u0...:v.
	0x04d0:  7662 11d4 87ef 18cc 4553 7f2d 506d 28ce  vb......ES.-Pm(.
	0x04e0:  93d8 1624 7a84 578b 62b5 f96f 3659 fe65  ...$z.W.b..o6Y.e
	0x04f0:  eb66 eedc 1ccf 4aa2 fec3 944c 73f6 938c  .f....J....Ls...
	0x0500:  b004 c093 ad7d 2b44 b9a8 a9ef 46be       .....}+D....F.
11:34:05.395435 08:00:27:d6:7b:61 (oui Unknown) > 84:1b:77:72:a3:8f (oui Unknown), ethertype IPv4 (0x0800), length 150: (tos 0x10, ttl 64, id 38933, offset 0, flags [DF], proto TCP (6), length 136)
    dev1-10.ssh > 192.168.1.50.3616: Flags [P.], cksum 0x8472 (incorrect -> 0x84b4), seq 4304:4400, ack 1, win 501, length 96
	0x0000:  841b 7772 a38f 0800 27d6 7b61 0800 4510  ..wr....'.{a..E.
	0x0010:  0088 9815 4000 4006 1e53 c0a8 0175 c0a8  ....@.@..S...u..
	0x0020:  0132 0016 0e20 a55d da8c bf7c ff53 5018  .2.....]...|.SP.
	0x0030:  01f5 8472 0000 1cd3 1592 c91a 223c 2334  ...r........"<#4
	0x0040:  694d ac9f 7b2d e2b9 6e2f 7ddf 93de 019c  iM..{-..n/}.....
	0x0050:  87a1 6574 2bfa b040 d96a 62eb 5840 0f2f  ..et+..@.jb.X@./
	0x0060:  1392 0a9a 82e7 373d 6963 7baf a321 958a  ......7=ic{..!..
	0x0070:  202e abac 492e 2a3c 0661 d739 fed9 f762  ....I.*<.a.9...b
	0x0080:  4511 4b99 3cd9 489e 4626 9e32 0724 6f16  E.K.<.H.F&.2.$o.
	0x0090:  25ef 3506 df9d                           %.5...
11:34:05.395574 56:7e:a4:d8:79:25 (oui Unknown) > 08:00:27:d6:7b:61 (oui Unknown), ethertype IPv4 (0x0800), length 85: (tos 0x0, ttl 64, id 13562, offset 0, flags [none], proto UDP (17), length 71)
    192.168.1.11.domain > dev1-10.49675: 1506 NXDomain 0/0/0 (43)
	0x0000:  0800 27d6 7b61 567e a4d8 7925 0800 4500  ..'.{aV~..y%..E.
	0x0010:  0047 34fa 0000 4011 c1db c0a8 010b c0a8  .G4...@.........
	0x0020:  0175 0035 c20b 0033 b653 05e2 8183 0001  .u.5...3.S......
	0x0030:  0000 0000 0000 0232 3001 3103 3136 3803  .......20.1.168.
	0x0040:  3139 3207 696e 2d61 6464 7204 6172 7061  192.in-addr.arpa
	0x0050:  0000 0c00 01                             .....
11:34:05.395794 08:00:27:d6:7b:61 (oui Unknown) > 56:7e:a4:d8:79:25 (oui Unknown), ethertype IPv4 (0x0800), length 86: (tos 0x0, ttl 64, id 65314, offset 0, flags [DF], proto UDP (17), length 72)
    dev1-10.59026 > 192.168.1.11.domain: 18989+ PTR? 101.1.168.192.in-addr.arpa. (44)
	0x0000:  567e a4d8 7925 0800 27d6 7b61 0800 4500  V~..y%..'.{a..E.
	0x0010:  0048 ff22 4000 4011 b7b1 c0a8 0175 c0a8  .H."@.@......u..
	0x0020:  010b e692 0035 0034 8416 4a2d 0100 0001  .....5.4..J-....
	0x0030:  0000 0000 0000 0331 3031 0131 0331 3638  .......101.1.168
	0x0040:  0331 3932 0769 6e2d 6164 6472 0461 7270  .192.in-addr.arp
	0x0050:  6100 000c 0001                           a.....
11:34:05.396547 56:7e:a4:d8:79:25 (oui Unknown) > 08:00:27:d6:7b:61 (oui Unknown), ethertype IPv4 (0x0800), length 86: (tos 0x0, ttl 64, id 13563, offset 0, flags [none], proto UDP (17), length 72)
    192.168.1.11.domain > dev1-10.59026: 18989 NXDomain 0/0/0 (44)
	0x0000:  0800 27d6 7b61 567e a4d8 7925 0800 4500  ..'.{aV~..y%..E.
	0x0010:  0048 34fb 0000 4011 c1d9 c0a8 010b c0a8  .H4...@.........
	0x0020:  0175 0035 e692 0034 0b90 4a2d 8183 0001  .u.5...4..J-....
	0x0030:  0000 0000 0000 0331 3031 0131 0331 3638  .......101.1.168
	0x0040:  0331 3932 0769 6e2d 6164 6472 0461 7270  .192.in-addr.arp
	0x0050:  6100 000c 0001                           a.....
11:34:05.396718 84:1b:77:72:a3:8f (oui Unknown) > 08:00:27:d6:7b:61 (oui Unknown), ethertype IPv4 (0x0800), length 54: (tos 0x0, ttl 128, id 14508, offset 0, flags [DF], proto TCP (6), length 40)
    192.168.1.50.3616 > dev1-10.ssh: Flags [.], cksum 0xa8b9 (correct), ack 4400, win 13778, length 0
	0x0000:  0800 27d6 7b61 841b 7772 a38f 0800 4500  ..'.{a..wr....E.
	0x0010:  0028 38ac 4000 8006 3e2c c0a8 0132 c0a8  .(8.@...>,...2..
	0x0020:  0175 0e20 0016 bf7c ff53 a55d daec 5010  .u.....|.S.]..P.
	0x0030:  35d2 a8b9 0000                           5.....
11:34:05.396768 08:00:27:d6:7b:61 (oui Unknown) > 56:7e:a4:d8:79:25 (oui Unknown), ethertype IPv4 (0x0800), length 84: (tos 0x0, ttl 64, id 65315, offset 0, flags [DF], proto UDP (17), length 70)
    dev1-10.60239 > 192.168.1.11.domain: 42605+ PTR? 3.1.168.192.in-addr.arpa. (42)
	0x0000:  567e a4d8 7925 0800 27d6 7b61 0800 4500  V~..y%..'.{a..E.
	0x0010:  0046 ff23 4000 4011 b7b2 c0a8 0175 c0a8  .F.#@.@......u..
	0x0020:  010b eb4f 0035 0032 8414 a66d 0100 0001  ...O.5.2...m....
	0x0030:  0000 0000 0000 0133 0131 0331 3638 0331  .......3.1.168.1
	0x0040:  3932 0769 6e2d 6164 6472 0461 7270 6100  92.in-addr.arpa.
	0x0050:  000c 0001                                ....
11:34:05.397526 56:7e:a4:d8:79:25 (oui Unknown) > 08:00:27:d6:7b:61 (oui Unknown), ethertype IPv4 (0x0800), length 84: (tos 0x0, ttl 64, id 13564, offset 0, flags [none], proto UDP (17), length 70)
    192.168.1.11.domain > dev1-10.60239: 42605 NXDomain 0/0/0 (42)
	0x0000:  0800 27d6 7b61 567e a4d8 7925 0800 4500  ..'.{aV~..y%..E.
	0x0010:  0046 34fc 0000 4011 c1da c0a8 010b c0a8  .F4...@.........
	0x0020:  0175 0035 eb4f 0032 dcc5 a66d 8183 0001  .u.5.O.2...m....
	0x0030:  0000 0000 0000 0133 0131 0331 3638 0331  .......3.1.168.1
	0x0040:  3932 0769 6e2d 6164 6472 0461 7270 6100  92.in-addr.arpa.
	0x0050:  000c 0001                                ....
11:34:05.397730 08:00:27:d6:7b:61 (oui Unknown) > 56:7e:a4:d8:79:25 (oui Unknown), ethertype IPv4 (0x0800), length 86: (tos 0x0, ttl 64, id 65316, offset 0, flags [DF], proto UDP (17), length 72)
    dev1-10.60441 > 192.168.1.11.domain: 40330+ PTR? 109.1.168.192.in-addr.arpa. (44)
	0x0000:  567e a4d8 7925 0800 27d6 7b61 0800 4500  V~..y%..'.{a..E.
	0x0010:  0048 ff24 4000 4011 b7af c0a8 0175 c0a8  .H.$@.@......u..
	0x0020:  010b ec19 0035 0034 8416 9d8a 0100 0001  .....5.4........
	0x0030:  0000 0000 0000 0331 3039 0131 0331 3638  .......109.1.168
	0x0040:  0331 3932 0769 6e2d 6164 6472 0461 7270  .192.in-addr.arp
	0x0050:  6100 000c 0001                           a.....
11:34:05.398499 56:7e:a4:d8:79:25 (oui Unknown) > 08:00:27:d6:7b:61 (oui Unknown), ethertype IPv4 (0x0800), length 86: (tos 0x0, ttl 64, id 13565, offset 0, flags [none], proto UDP (17), length 72)
    192.168.1.11.domain > dev1-10.60441: 40330 NXDomain 0/0/0 (44)
	0x0000:  0800 27d6 7b61 567e a4d8 7925 0800 4500  ..'.{aV~..y%..E.
	0x0010:  0048 34fd 0000 4011 c1d7 c0a8 010b c0a8  .H4...@.........
	0x0020:  0175 0035 ec19 0034 b2a3 9d8a 8183 0001  .u.5...4........
	0x0030:  0000 0000 0000 0331 3039 0131 0331 3638  .......109.1.168
	0x0040:  0331 3932 0769 6e2d 6164 6472 0461 7270  .192.in-addr.arp
	0x0050:  6100 000c 0001                           a.....
11:34:05.398706 08:00:27:d6:7b:61 (oui Unknown) > 56:7e:a4:d8:79:25 (oui Unknown), ethertype IPv4 (0x0800), length 85: (tos 0x0, ttl 64, id 65317, offset 0, flags [DF], proto UDP (17), length 71)
    dev1-10.42007 > 192.168.1.11.domain: 43053+ PTR? 19.1.168.192.in-addr.arpa. (43)
	0x0000:  567e a4d8 7925 0800 27d6 7b61 0800 4500  V~..y%..'.{a..E.
	0x0010:  0047 ff25 4000 4011 b7af c0a8 0175 c0a8  .G.%@.@......u..
	0x0020:  010b a417 0035 0033 8415 a82d 0100 0001  .....5.3...-....
	0x0030:  0000 0000 0000 0231 3901 3103 3136 3803  .......19.1.168.
	0x0040:  3139 3207 696e 2d61 6464 7204 6172 7061  192.in-addr.arpa
	0x0050:  0000 0c00 01                             .....
11:34:05.400477 56:7e:a4:d8:79:25 (oui Unknown) > 08:00:27:d6:7b:61 (oui Unknown), ethertype IPv4 (0x0800), length 85: (tos 0x0, ttl 64, id 13566, offset 0, flags [none], proto UDP (17), length 71)
    192.168.1.11.domain > dev1-10.42007: 43053 NXDomain 0/0/0 (43)
	0x0000:  0800 27d6 7b61 567e a4d8 7925 0800 4500  ..'.{aV~..y%..E.
	0x0010:  0047 34fe 0000 4011 c1d7 c0a8 010b c0a8  .G4...@.........
	0x0020:  0175 0035 a417 0033 28fd a82d 8183 0001  .u.5...3(..-....
	0x0030:  0000 0000 0000 0231 3901 3103 3136 3803  .......19.1.168.
	0x0040:  3139 3207 696e 2d61 6464 7204 6172 7061  192.in-addr.arpa
	0x0050:  0000 0c00 01                             .....
11:34:05.400664 08:00:27:d6:7b:61 (oui Unknown) > 56:7e:a4:d8:79:25 (oui Unknown), ethertype IPv4 (0x0800), length 86: (tos 0x0, ttl 64, id 65318, offset 0, flags [DF], proto UDP (17), length 72)
    dev1-10.51023 > 192.168.1.11.domain: 23838+ PTR? 111.1.168.192.in-addr.arpa. (44)
	0x0000:  567e a4d8 7925 0800 27d6 7b61 0800 4500  V~..y%..'.{a..E.
	0x0010:  0048 ff26 4000 4011 b7ad c0a8 0175 c0a8  .H.&@.@......u..
	0x0020:  010b c74f 0035 0034 8416 5d1e 0100 0001  ...O.5.4..].....
	0x0030:  0000 0000 0000 0331 3131 0131 0331 3638  .......111.1.168
	0x0040:  0331 3932 0769 6e2d 6164 6472 0461 7270  .192.in-addr.arp
	0x0050:  6100 000c 0001                           a.....
11:34:05.401404 6c:3b:6b:0f:d1:c8 (oui Unknown) > Broadcast, ethertype ARP (0x0806), length 60: Ethernet (len 6), IPv4 (len 4), Request who-has 192.168.1.40 tell 192.168.1.212, length 46
	0x0000:  ffff ffff ffff 6c3b 6b0f d1c8 0806 0001  ......l;k.......
	0x0010:  0800 0604 0001 6c3b 6b0f d1c8 c0a8 01d4  ......l;k.......
	0x0020:  0000 0000 0000 c0a8 0128 0000 0000 0000  .........(......
	0x0030:  0000 0000 0000 0000 0000 0000            ............
11:34:05.401405 56:7e:a4:d8:79:25 (oui Unknown) > 08:00:27:d6:7b:61 (oui Unknown), ethertype IPv4 (0x0800), length 86: (tos 0x0, ttl 64, id 13567, offset 0, flags [none], proto UDP (17), length 72)
    192.168.1.11.domain > dev1-10.51023: 23838 NXDomain 0/0/0 (44)
	0x0000:  0800 27d6 7b61 567e a4d8 7925 0800 4500  ..'.{aV~..y%..E.
	0x0010:  0048 34ff 0000 4011 c1d5 c0a8 010b c0a8  .H4...@.........
	0x0020:  0175 0035 c74f 0034 16e2 5d1e 8183 0001  .u.5.O.4..].....
	0x0030:  0000 0000 0000 0331 3131 0131 0331 3638  .......111.1.168
	0x0040:  0331 3932 0769 6e2d 6164 6472 0461 7270  .192.in-addr.arp
	0x0050:  6100 000c 0001                           a.....
11:34:05.401622 08:00:27:d6:7b:61 (oui Unknown) > 56:7e:a4:d8:79:25 (oui Unknown), ethertype IPv4 (0x0800), length 86: (tos 0x0, ttl 64, id 65319, offset 0, flags [DF], proto UDP (17), length 72)
    dev1-10.58539 > 192.168.1.11.domain: 20909+ PTR? 102.1.168.192.in-addr.arpa. (44)
	0x0000:  567e a4d8 7925 0800 27d6 7b61 0800 4500  V~..y%..'.{a..E.
	0x0010:  0048 ff27 4000 4011 b7ac c0a8 0175 c0a8  .H.'@.@......u..
	0x0020:  010b e4ab 0035 0034 8416 51ad 0100 0001  .....5.4..Q.....
	0x0030:  0000 0000 0000 0331 3032 0131 0331 3638  .......102.1.168
	0x0040:  0331 3932 0769 6e2d 6164 6472 0461 7270  .192.in-addr.arp
	0x0050:  6100 000c 0001                           a.....
11:34:05.402333 56:7e:a4:d8:79:25 (oui Unknown) > 08:00:27:d6:7b:61 (oui Unknown), ethertype IPv4 (0x0800), length 86: (tos 0x0, ttl 64, id 13568, offset 0, flags [none], proto UDP (17), length 72)
    192.168.1.11.domain > dev1-10.58539: 20909 NXDomain 0/0/0 (44)
	0x0000:  0800 27d6 7b61 567e a4d8 7925 0800 4500  ..'.{aV~..y%..E.
	0x0010:  0048 3500 0000 4011 c1d4 c0a8 010b c0a8  .H5...@.........
	0x0020:  0175 0035 e4ab 0034 05f6 51ad 8183 0001  .u.5...4..Q.....
	0x0030:  0000 0000 0000 0331 3032 0131 0331 3638  .......102.1.168
	0x0040:  0331 3932 0769 6e2d 6164 6472 0461 7270  .192.in-addr.arp
	0x0050:  6100 000c 0001                           a.....
11:34:05.402524 08:00:27:d6:7b:61 (oui Unknown) > 56:7e:a4:d8:79:25 (oui Unknown), ethertype IPv4 (0x0800), length 86: (tos 0x0, ttl 64, id 65320, offset 0, flags [DF], proto UDP (17), length 72)
    dev1-10.45197 > 192.168.1.11.domain: 20074+ PTR? 107.1.168.192.in-addr.arpa. (44)
	0x0000:  567e a4d8 7925 0800 27d6 7b61 0800 4500  V~..y%..'.{a..E.
	0x0010:  0048 ff28 4000 4011 b7ab c0a8 0175 c0a8  .H.(@.@......u..
	0x0020:  010b b08d 0035 0034 8416 4e6a 0100 0001  .....5.4..Nj....
	0x0030:  0000 0000 0000 0331 3037 0131 0331 3638  .......107.1.168
	0x0040:  0331 3932 0769 6e2d 6164 6472 0461 7270  .192.in-addr.arp
	0x0050:  6100 000c 0001                           a.....
11:34:05.403298 56:7e:a4:d8:79:25 (oui Unknown) > 08:00:27:d6:7b:61 (oui Unknown), ethertype IPv4 (0x0800), length 86: (tos 0x0, ttl 64, id 13569, offset 0, flags [none], proto UDP (17), length 72)
    192.168.1.11.domain > dev1-10.45197: 20074 NXDomain 0/0/0 (44)
	0x0000:  0800 27d6 7b61 567e a4d8 7925 0800 4500  ..'.{aV~..y%..E.
	0x0010:  0048 3501 0000 4011 c1d3 c0a8 010b c0a8  .H5...@.........
	0x0020:  0175 0035 b08d 0034 3d52 4e6a 8183 0001  .u.5...4=RNj....
	0x0030:  0000 0000 0000 0331 3037 0131 0331 3638  .......107.1.168
	0x0040:  0331 3932 0769 6e2d 6164 6472 0461 7270  .192.in-addr.arp
	0x0050:  6100 000c 0001                           a.....
11:34:05.403639 08:00:27:d6:7b:61 (oui Unknown) > 84:1b:77:72:a3:8f (oui Unknown), ethertype IPv4 (0x0800), length 2974: (tos 0x10, ttl 64, id 38934, offset 0, flags [DF], proto TCP (6), length 2960)
    dev1-10.ssh > 192.168.1.50.3616: Flags [P.], cksum 0x8f7a (incorrect -> 0x45a9), seq 4400:7320, ack 1, win 501, length 2920
	0x0000:  841b 7772 a38f 0800 27d6 7b61 0800 4510  ..wr....'.{a..E.
	0x0010:  0b90 9816 4000 4006 134a c0a8 0175 c0a8  ....@.@..J...u..
	0x0020:  0132 0016 0e20 a55d daec bf7c ff53 5018  .2.....]...|.SP.
	0x0030:  01f5 8f7a 0000 33a9 f57f ad40 ab07 a427  ...z..3....@...'
	0x0040:  36d2 016c 836d 75a2 0311 2fe7 431c 9314  6..l.mu.../.C...
	0x0050:  0125 9eb7 2f0e 2987 c1f1 8b50 a697 5b5f  .%../.)....P..[_
	0x0060:  779a d51d 92af 3c99 91f2 98fe ba3d a379  w.....<......=.y
	0x0070:  ff3b 1564 504c bf72 bae5 8408 ff7a b14e  .;.dPL.r.....z.N
	0x0080:  5cf3 d49c 35db 9a8d baa4 0106 1db1 2d1a  \...5.........-.
	0x0090:  358d 270c 1b5a bd81 75d4 fa41 ce80 a3c2  5.'..Z..u..A....
	0x00a0:  2b0a 056e 75f3 094f b028 3abf 7eba 764a  +..nu..O.(:.~.vJ
	0x00b0:  6bd8 754f 238d 5a8e 89b1 2d02 a8ce 0b90  k.uO#.Z...-.....
	0x00c0:  870f 82f5 0eba 2dc7 c2c9 5bf2 fbdb e429  ......-...[....)
	0x00d0:  edf2 bbc1 8e4a 3664 767e 7c06 191e e73e  .....J6dv~|....>
	0x00e0:  9f09 97de 17cd d2ba 8b4d 1d75 4e7b 2939  .........M.uN{)9
	0x00f0:  7886 0694 38aa a502 57f3 538a b66a b128  x...8...W.S..j.(
	0x0100:  da4b 1abd 14a0 857c d5b0 4369 39ae 6f23  .K.....|..Ci9.o#
	0x0110:  7274 88e0 da04 6a05 0b72 46b9 4d7b 4068  rt....j..rF.M{@h
	0x0120:  3428 fdae 00f1 e8cb a188 53ce 5ddf db46  4(........S.]..F
	0x0130:  d5ed 17ea 9b60 260d eb9c fbfa 294f a6ad  .....`&.....)O..
	0x0140:  60ed ba46 2e83 80dd b2c7 b9e7 0adb 53c1  `..F..........S.
	0x0150:  3896 c8eb 39de 3fc3 f31f d71e 34a4 59ef  8...9.?.....4.Y.
	0x0160:  3a76 07d0 d942 8848 d3de a439 87bb 83e3  :v...B.H...9....
	0x0170:  f6c9 b27c 1c5d 367d 7387 8d32 ba7d e34f  ...|.]6}s..2.}.O
	0x0180:  96cf 9860 557d 9fc3 0a59 79bd c8eb 0566  ...`U}...Yy....f
	0x0190:  afa1 f48a 8115 7d30 960d ae6f c44d 91dc  ......}0...o.M..
	0x01a0:  0824 d19e 03c0 1b89 0238 ca5c 62ba e241  .$.......8.\b..A
	0x01b0:  e025 cc3e 88d1 c916 f365 b872 9c68 5b27  .%.>.....e.r.h['
	0x01c0:  1e05 14c2 d9e9 a5bf 0369 8506 f4a3 2266  .........i...."f
	0x01d0:  9ac0 51b6 da62 ce1b 24a3 0b3d 191b c245  ..Q..b..$..=...E
	0x01e0:  86b7 c89b 107f 0971 11f5 f980 41f2 f48e  .......q....A...
	0x01f0:  2b0a 3f10 5b26 5a61 3ac9 5b16 0b72 0609  +.?.[&Za:.[..r..
	0x0200:  ffee 422f 607a 315a 1bc3 b497 091a b8bd  ..B/`z1Z........
	0x0210:  d1c4 f47f 2449 f018 4463 a482 a8e2 c29c  ....$I..Dc......
	0x0220:  80ed 9599 9440 28ea cae0 1004 53ed c199  .....@(.....S...
	0x0230:  5f28 2a47 80c9 2db4 9e0b b136 f575 2c37  _(*G..-....6.u,7
	0x0240:  3cfe db33 06aa b23b 82ce b8b2 8b28 6c0d  <..3...;.....(l.
	0x0250:  91c3 b3d9 418a fdc5 d9ec 87ed 4be7 8012  ....A.......K...
	0x0260:  b319 c55c 2593 d35a 46d2 d0ef c5e4 febe  ...\%..ZF.......
	0x0270:  4fe7 f8be 6f5b c712 5720 775c 0031 8d4c  O...o[..W.w\.1.L
	0x0280:  36b1 05dd ccda 0d22 aff2 9cc8 2495 954d  6......"....$..M
	0x0290:  8ba4 d5c9 ce56 5d55 b62f 2673 d984 e1e2  .....V]U./&s....
	0x02a0:  e733 ba58 1943 68a7 ea49 acf6 6e76 ebdc  .3.X.Ch..I..nv..
	0x02b0:  5abe 1f11 99e8 c9a4 37a9 2b10 4dae 6d8f  Z.......7.+.M.m.
	0x02c0:  ba97 079f 7be4 3bc6 97d6 4538 965a 1464  ....{.;...E8.Z.d
	0x02d0:  3224 a735 b1c3 cfe1 060a d32a 3026 2511  2$.5.......*0&%.
	0x02e0:  1578 c020 8d2a e178 d187 530d f73d e3ad  .x...*.x..S..=..
	0x02f0:  3999 37a5 15dc b91b e51f 6594 37f4 01ae  9.7.......e.7...
	0x0300:  22d5 681c 40be ffb3 ae38 2e82 1f90 5713  ".h.@....8....W.
	0x0310:  eb8a bdda a801 02e3 c99e a3ae ac50 5e02  .............P^.
	0x0320:  d23e 79b0 3f5c 800f 21ec 4d0a 27c4 aa75  .>y.?\..!.M.'..u
	0x0330:  989c c924 013b 3a1d c004 af47 d537 fcbe  ...$.;:....G.7..
	0x0340:  b0f7 b936 202b 0c5d 6f39 a75f 4427 615f  ...6.+.]o9._D'a_
	0x0350:  17a6 07ee a9b9 6db9 37a2 ef12 376e 94b0  ......m.7...7n..
	0x0360:  6715 a08f 200e 674a 6e8f 4231 91ee 204d  g.....gJn.B1...M
	0x0370:  8b93 7566 b257 cd6c 871e b4ca 3b1a 7b84  ..uf.W.l....;.{.
	0x0380:  b7b2 9cb4 1031 cf4c 4499 dae4 8c1e f006  .....1.LD.......
	0x0390:  b5c6 3569 3537 390e 1eb1 1b3a fe6b dd19  ..5i579....:.k..
	0x03a0:  c087 0599 de4c 01c8 42d5 5c5b 73c0 a6be  .....L..B.\[s...
	0x03b0:  51d4 7d0e 42a9 e894 409d 427f 9b2b a851  Q.}.B...@.B..+.Q
	0x03c0:  7023 b569 59f2 b027 b9f8 80e1 f537 1c67  p#.iY..'.....7.g
	0x03d0:  2984 0821 c7bf 4744 e7bd 91e4 324e 816b  )..!..GD....2N.k
	0x03e0:  552d e364 7f48 6179 0fb4 9535 98a8 79c8  U-.d.Hay...5..y.
	0x03f0:  812d e919 3b82 694c caf5 e650 d836 b0b8  .-..;.iL...P.6..
	0x0400:  8621 31d6 f4c5 4f3a 33bb a317 ac1e 77d8  .!1...O:3.....w.
	0x0410:  92f1 c7a6 f1b7 1a41 1356 49f3 3a63 38b3  .......A.VI.:c8.
	0x0420:  9071 4079 d3f9 e23f 60be b8bf 8ea5 0734  .q@y...?`......4
	0x0430:  d5fa ec00 a52b 863c 9ffe 153c 4b2c b713  .....+.<...<K,..
	0x0440:  320e afde 0c67 3f60 10e3 c7f2 0d64 312d  2....g?`.....d1-
	0x0450:  c51f 9380 5173 eb30 b43a 0f55 5760 5ea9  ....Qs.0.:.UW`^.
	0x0460:  0257 0e89 da61 4ccb 637e 573d f8b2 9448  .W...aL.c~W=...H
	0x0470:  27d2 54b2 a5ca 8ca6 0e11 dc69 290d 2792  '.T........i).'.
	0x0480:  5b80 3dd3 fc51 efda 6765 19eb d824 09f1  [.=..Q..ge...$..
	0x0490:  9c81 5089 b0fe fde3 1d9e dd6b 2fbd dbaf  ..P........k/...
	0x04a0:  d1f9 32c5 6f7f cb06 a9cd b416 93d1 2681  ..2.o.........&.
	0x04b0:  3966 085c c5cd c82f 0e46 a4b4 8fc2 bb11  9f.\.../.F......
	0x04c0:  5d2f d248 a425 8da5 3703 a654 2c42 3211  ]/.H.%..7..T,B2.
	0x04d0:  4be1 f3db be6a 62b2 81c5 2b16 94cd fafb  K....jb...+.....
	0x04e0:  a867 a9b5 5078 123f abed 8871 872c 60ef  .g..Px.?...q.,`.
	0x04f0:  4078 bfd1 a8b9 687a 849d 9d1d d497 4341  @x....hz......CA
	0x0500:  c502 9ff2 0560 c138 47d5 73b0 827d 72db  .....`.8G.s..}r.
	0x0510:  c06a f8bd c9d3 9b98 8135 8cb3 1005 ed90  .j.......5......
	0x0520:  a10b 21dd 7faa 302f 010e 3a4f f941 bc80  ..!...0/..:O.A..
	0x0530:  c26e 3f41 e21b 6afc 233c 2899 05be 2da0  .n?A..j.#<(...-.
	0x0540:  7810 a72a 46e0 68d2 4e14 9ff2 aa9f be86  x..*F.h.N.......
	0x0550:  e539 f521 447b 68c0 4da4 16db d673 6fe2  .9.!D{h.M....so.
	0x0560:  25e3 2a14 9b00 2a62 f097 79f3 3693 dc6a  %.*...*b..y.6..j
	0x0570:  d1cc 8c03 fdce 12c6 911a 7c95 b178 8904  ..........|..x..
	0x0580:  fb10 da96 2530 e33b 1996 34c0 c3a1 97aa  ....%0.;..4.....
	0x0590:  c1d1 cfa2 fda0 142a 7bd6 b7d7 586c 02e1  .......*{...Xl..
	0x05a0:  6b77 7be0 ede4 a199 729d 37ad 6b46 b079  kw{.....r.7.kF.y
	0x05b0:  2bd7 0190 0b62 b26e d0f0 5653 968f 5a18  +....b.n..VS..Z.
	0x05c0:  543f b7c7 20bf 2cdc a47f e43b bd54 e716  T?....,....;.T..
	0x05d0:  c760 fd6b 0aea 1251 9d10 0a02 7fde 715a  .`.k...Q......qZ
	0x05e0:  b026 e6b2 1d7c fa17 d385 f0b0 121c 35a5  .&...|........5.
	0x05f0:  0cf7 4735 246d feb5 48f2 31fc b4a8 acb1  ..G5$m..H.1.....
	0x0600:  974f 597a 4f2c 006d 368c bc83 f893 be59  .OYzO,.m6......Y
	0x0610:  f9fc bb04 aaa9 1c9f 6e87 1ee6 a292 d4a1  ........n.......
	0x0620:  ba16 942f 647e 0035 26dd 02c4 b8e1 c1f8  .../d~.5&.......
	0x0630:  4f54 916d 09fa 0f75 4edf f1af e22d 66be  OT.m...uN....-f.
	0x0640:  f72e c345 57f2 0a48 8449 43ae 2d07 4d70  ...EW..H.IC.-.Mp
	0x0650:  7822 acae 5889 f27b e528 17bd 3d40 84fb  x"..X..{.(..=@..
	0x0660:  e7c9 f273 9d98 62a4 69b3 0d41 b4e1 b1cc  ...s..b.i..A....
	0x0670:  d490 8d90 3885 06af 9fc2 d1d6 44a6 211e  ....8.......D.!.
	0x0680:  62e9 6c78 ea55 7385 ea5c 4085 c728 ff0f  b.lx.Us..\@..(..
	0x0690:  10cf 95d0 0a89 9ca8 75aa 76fd 2ae6 2152  ........u.v.*.!R
	0x06a0:  9fb6 39d9 3fca b10e eb35 615b ec7f 7cf6  ..9.?....5a[..|.
	0x06b0:  bb1b 1726 cac3 ddfc dba2 f24f f677 f70a  ...&.......O.w..
	0x06c0:  f7e6 c9ae 309d c8b2 9068 9803 e83a 4334  ....0....h...:C4
	0x06d0:  c1e9 252c 32bd d2fd 3736 52f7 f0a4 0cbb  ..%,2...76R.....
	0x06e0:  dacf 944f 669b f247 c0b5 d4f0 ddfb 51ae  ...Of..G......Q.
	0x06f0:  9e6a 9448 12be 5b1c 7124 7de3 7bee 2652  .j.H..[.q$}.{.&R
	0x0700:  7474 fa21 e1db ab67 cf0f 428f 8b0e 9e4c  tt.!...g..B....L
	0x0710:  83a1 2c68 2550 4bf5 61ad 6cf6 e504 5613  ..,h%PK.a.l...V.
	0x0720:  e89f b831 9188 0a85 3450 457c 834d 56d4  ...1....4PE|.MV.
	0x0730:  b659 4818 37e0 5b70 703e 985b cc91 cb34  .YH.7.[pp>.[...4
	0x0740:  ad83 e656 11f5 b183 e092 23f4 7ec6 079d  ...V......#.~...
	0x0750:  400a fd54 4b39 ce43 78ee ec6a a430 fbaf  @..TK9.Cx..j.0..
	0x0760:  8aa4 3ca4 f838 b54d 8905 b501 35e8 da24  ..<..8.M....5..$
	0x0770:  93b9 7d50 a4c7 5905 1fee a70b 2034 9589  ..}P..Y......4..
	0x0780:  870c 06ff b548 76b4 3722 a73f 1df8 313b  .....Hv.7".?..1;
	0x0790:  13be 609c 0dac fbc1 efca 82bf 5660 1cc3  ..`.........V`..
	0x07a0:  cdc9 d08b f6ec f58a 89d0 be4b 3fc1 daca  ...........K?...
	0x07b0:  e792 ecc1 ab12 234a f36d 1717 b904 0e23  ......#J.m.....#
	0x07c0:  6619 acf3 a2f8 dd70 d770 0910 30e8 8e4c  f......p.p..0..L
	0x07d0:  312a bdf8 3cee 43fe fee2 101a 3dea b856  1*..<.C.....=..V
	0x07e0:  580d 77f9 e933 9a2b ae30 ea0f d7cb f13a  X.w..3.+.0.....:
	0x07f0:  d7d3 7349 5cfc 0eb6 3b4b c707 c16f 2d59  ..sI\...;K...o-Y
	0x0800:  40df be6b 3f29 65e4 23bd c7e9 c68a 99cf  @..k?)e.#.......
	0x0810:  d944 d669 e0d3 7c17 9184 6997 5b9e 2ee8  .D.i..|...i.[...
	0x0820:  5297 f644 279f 5270 7b03 917a 5a03 4b12  R..D'.Rp{..zZ.K.
	0x0830:  78ea 776b 450c 4373 3f2e cc5b eef0 0ba5  x.wkE.Cs?..[....
	0x0840:  c6d7 8540 2114 e657 4da8 8528 6733 a4bc  ...@!..WM..(g3..
	0x0850:  9ca0 3b6b c20f cfe6 3c1b 19a2 f2bd f6f4  ..;k....<.......
	0x0860:  4dab e1c8 8cb9 d2c1 a290 f75b 69ff 9792  M..........[i...
	0x0870:  5364 c79d 3648 4145 5bef 6745 cba8 7b49  Sd..6HAE[.gE..{I
	0x0880:  d799 cb49 da95 3d92 e56d fe1c eca9 d7fb  ...I..=..m......
	0x0890:  c653 9f86 c3da 48f3 cc1f ebf1 ffaa c7e5  .S....H.........
	0x08a0:  6450 346a ef64 d847 e0a0 6e99 e981 030e  dP4j.d.G..n.....
	0x08b0:  b858 5ecb 7e2b f360 2add 55d4 1d9c 43d2  .X^.~+.`*.U...C.
	0x08c0:  e827 954d bcfa 6dcd c141 d208 d4d2 5761  .'.M..m..A....Wa
	0x08d0:  dc99 7233 fdf6 fbe5 bb02 ce84 f7f3 db65  ..r3...........e
	0x08e0:  af53 2cfa 7e50 d015 64fc cd71 27a2 62ec  .S,.~P..d..q'.b.
	0x08f0:  a033 e1d4 94e4 2f73 cfac c44f 0f87 3a49  .3..../s...O..:I
	0x0900:  a32d b822 d71f e44f 5bd2 8c70 067a 69d9  .-."...O[..p.zi.
	0x0910:  9a78 9578 ad41 71db ab2f db9b faf7 edc9  .x.x.Aq../......
	0x0920:  6c44 ebe5 b10c 84d3 cd16 ac9e c741 8068  lD...........A.h
	0x0930:  f8c9 eb0e 7e92 bebf cd29 0834 c721 c43b  ....~....).4.!.;
	0x0940:  3c02 92ce b3a2 6c00 1440 b1fa c44c cbc5  <.....l..@...L..
	0x0950:  25a5 d3cf 41db bc44 c82d a510 e275 6207  %...A..D.-...ub.
	0x0960:  632f 325a e556 b30f 21a9 100a 1cfa 4e66  c/2Z.V..!.....Nf
	0x0970:  41b2 d740 e914 bde9 b531 d1c9 29c2 e7a9  A..@.....1..)...
	0x0980:  4003 f60b 50fa d065 2ef2 71e1 896f f793  @...P..e..q..o..
	0x0990:  9c0f 002f 2fa0 412c 7142 32af 9005 3d20  ...//.A,qB2...=.
	0x09a0:  8ef9 7776 de66 36b2 8db1 5f8b 99b0 a333  ..wv.f6..._....3
	0x09b0:  98a4 1e8d 1298 8758 b1f7 20d9 3ea1 c691  .......X....>...
	0x09c0:  f267 8d5a 6d4e e224 21b5 943f c14f 42c9  .g.ZmN.$!..?.OB.
	0x09d0:  ca52 a4e6 d951 9ea9 f054 4929 10e7 a50d  .R...Q...TI)....
	0x09e0:  ea71 4598 80e0 d1d1 2486 d9d3 ac55 9839  .qE.....$....U.9
	0x09f0:  7886 6069 79b0 3b34 ddf7 14f4 bb76 1adb  x.`iy.;4.....v..
	0x0a00:  b78e 2e49 9ae3 06b7 ef91 4b94 4419 115d  ...I......K.D..]
	0x0a10:  a0f4 85fe d22e 99df a3cd 56d7 3ae6 2288  ..........V.:.".
	0x0a20:  6017 e074 5da4 dabb c5e5 f690 36a1 7983  `..t].......6.y.
	0x0a30:  63db f705 9d02 ef44 7fc7 3723 564e e54d  c......D..7#VN.M
	0x0a40:  b99d 2228 751c 6b55 8059 fc94 38a2 0229  .."(u.kU.Y..8..)
	0x0a50:  5670 f014 c1cd 2e64 70ee 18c4 2a86 8582  Vp.....dp...*...
	0x0a60:  644d c699 1827 5e20 116a 4789 b5d7 e0cc  dM...'^..jG.....
	0x0a70:  0833 a88d 9276 18d1 d19e bbb7 4c02 ff89  .3...v......L...
	0x0a80:  2276 d6d4 0aa4 cdb1 b8a7 3bd5 2e1b 068c  "v........;.....
	0x0a90:  4fa5 377d 223c e482 fc4f 7a41 804c 4623  O.7}"<...OzA.LF#
	0x0aa0:  e982 e38f 076e cd78 1bab 5862 8031 406e  .....n.x..Xb.1@n
	0x0ab0:  1939 1fb8 4679 d43f 1b25 28cf e55d 1e53  .9..Fy.?.%(..].S
	0x0ac0:  0058 cdc0 e5d9 09c2 1157 898f ed80 861d  .X.......W......
	0x0ad0:  224c 607a 5b9b 398d f0f6 6e9e f025 6b6c  "L`z[.9...n..%kl
	0x0ae0:  15f3 9b2c fb4e ba4e de1a b8ea 648d 3aa1  ...,.N.N....d.:.
	0x0af0:  d437 bc20 4363 9ead 969d d415 cefb 9fa0  .7..Cc..........
	0x0b00:  3135 7f4f 701b 56bb f62e 7282 9770 8222  15.Op.V...r..p."
	0x0b10:  2315 3258 0e70 af7f d435 cb84 a63c 606f  #.2X.p...5...<`o
	0x0b20:  5388 d288 9348 fbe1 0ef5 d440 dc06 5886  S....H.....@..X.
	0x0b30:  e137 a582 d865 9182 d00a 28cd a291 e83c  .7...e....(....<
	0x0b40:  b3af 7289 561e bdd2 f7dd e89b 9e4a 956e  ..r.V........J.n
	0x0b50:  d290 4aec b3d9 cd1e 2697 9d69 4f56 0c42  ..J.....&..iOV.B
	0x0b60:  b3b6 198f e173 840c bc81 a7a6 55c9 5505  .....s......U.U.
	0x0b70:  7af5 f404 54bf 90fa 1535 4268 efea b5b0  z...T....5Bh....
	0x0b80:  795f 39bc 294f 03b6 4a36 94b5 86de 222a  y_9.)O..J6...."*
	0x0b90:  7b49 73a0 d76c 3c14 5d25 3347 2d8e       {Is..l<.]%3G-.
11:34:05.403657 08:00:27:d6:7b:61 (oui Unknown) > 56:7e:a4:d8:79:25 (oui Unknown), ethertype IPv4 (0x0800), length 86: (tos 0x0, ttl 64, id 65321, offset 0, flags [DF], proto UDP (17), length 72)
    dev1-10.49169 > 192.168.1.11.domain: 32701+ PTR? 120.1.168.192.in-addr.arpa. (44)
	0x0000:  567e a4d8 7925 0800 27d6 7b61 0800 4500  V~..y%..'.{a..E.
	0x0010:  0048 ff29 4000 4011 b7aa c0a8 0175 c0a8  .H.)@.@......u..
	0x0020:  010b c011 0035 0034 8416 7fbd 0100 0001  .....5.4........
	0x0030:  0000 0000 0000 0331 3230 0131 0331 3638  .......120.1.168
	0x0040:  0331 3932 0769 6e2d 6164 6472 0461 7270  .192.in-addr.arp
	0x0050:  6100 000c 0001                           a.....
11:34:05.403661 08:00:27:d6:7b:61 (oui Unknown) > 84:1b:77:72:a3:8f (oui Unknown), ethertype IPv4 (0x0800), length 1294: (tos 0x10, ttl 64, id 38936, offset 0, flags [DF], proto TCP (6), length 1280)
    dev1-10.ssh > 192.168.1.50.3616: Flags [P.], cksum 0x88ea (incorrect -> 0x8a0d), seq 7320:8560, ack 1, win 501, length 1240
	0x0000:  841b 7772 a38f 0800 27d6 7b61 0800 4510  ..wr....'.{a..E.
	0x0010:  0500 9818 4000 4006 19d8 c0a8 0175 c0a8  ....@.@......u..
	0x0020:  0132 0016 0e20 a55d e654 bf7c ff53 5018  .2.....].T.|.SP.
	0x0030:  01f5 88ea 0000 4b8a a5ae 41f5 d1b8 857e  ......K...A....~
	0x0040:  043d fcb8 e774 bac8 3d45 e7c2 6818 6819  .=...t..=E..h.h.
	0x0050:  9fad ebcc a280 828b 981e 55a0 0866 b9c4  ..........U..f..
	0x0060:  ec45 0a73 9bd5 f369 91a8 d346 67ca 29f6  .E.s...i...Fg.).
	0x0070:  e235 5907 d283 d74f 9202 33a0 eee1 4b47  .5Y....O..3...KG
	0x0080:  9e77 f901 ca15 511f 7075 4d68 7930 8f63  .w....Q.puMhy0.c
	0x0090:  def5 9a8d 3b60 9afa 0e8e b0d9 2b11 cc28  ....;`......+..(
	0x00a0:  c76a f577 855c d08f f2b8 5c31 f2c7 12db  .j.w.\....\1....
	0x00b0:  72db 9637 826b 36b9 33ca 3907 15c0 0e94  r..7.k6.3.9.....
	0x00c0:  b09a afcf 2c5a 1103 ebb3 b247 ff5e fdd9  ....,Z.....G.^..
	0x00d0:  3fdf 4eb1 2165 7f91 c991 0c58 6264 2f6c  ?.N.!e.....Xbd/l
	0x00e0:  978c e354 fd57 e89e 8e83 6b57 489d 5bd1  ...T.W....kWH.[.
	0x00f0:  ee2b 84ca 40ad b908 db49 5e2c 057e 03a6  .+..@....I^,.~..
	0x0100:  fac7 00b6 9adb e50c 820a cec3 8929 f7c4  .............)..
	0x0110:  f653 cf22 63ee 4fef 2add 5323 7b28 995c  .S."c.O.*.S#{(.\
	0x0120:  2c55 7502 59d4 e323 6cfc b722 6413 7c41  ,Uu.Y..#l.."d.|A
	0x0130:  1153 c9f1 2173 09b2 626a 2113 2e53 7a5f  .S..!s..bj!..Sz_
	0x0140:  c80a 238c 34a6 7259 e5d0 4daf a3d5 fd73  ..#.4.rY..M....s
	0x0150:  e146 d1f9 70c5 1f48 f771 eb47 b4d3 7c87  .F..p..H.q.G..|.
	0x0160:  f982 2f92 daac 500f 16ba 6a26 9914 e63e  ../...P...j&...>
	0x0170:  1753 075a 40ae 1cfc f8ea 994e 2c56 f0b9  .S.Z@......N,V..
	0x0180:  984f 6571 8513 bcf6 f882 d7ba 4daf 56b9  .Oeq........M.V.
	0x0190:  24e8 c15f acaf db56 eec1 3927 7752 f1bc  $.._...V..9'wR..
	0x01a0:  ea2e 6021 b756 b082 a12b 8c45 3160 3406  ..`!.V...+.E1`4.
	0x01b0:  09df 9840 1846 ee1e 401d a716 2ed5 848b  ...@.F..@.......
	0x01c0:  b40a b667 0829 ab61 4a31 b19e 38aa 887d  ...g.).aJ1..8..}
	0x01d0:  b375 6d46 7281 d1ee 98fb 801b d65d 6dc6  .umFr........]m.
	0x01e0:  7724 2ea3 97b5 def6 bc00 7633 b139 05e4  w$........v3.9..
	0x01f0:  4dab 6177 5ad9 b8d9 5e27 7f62 b981 535c  M.awZ...^'.b..S\
	0x0200:  b567 3523 9a2c 3045 8f7f 12b0 44b4 1674  .g5#.,0E....D..t
	0x0210:  7dc7 ba91 8637 d53c 4718 c638 d06e 0da0  }....7.<G..8.n..
	0x0220:  1372 76e2 6275 c2e2 5dc4 4ba8 8c69 ddbf  .rv.bu..].K..i..
	0x0230:  8a46 1cb8 e214 ebaf 8fee a3d8 b6f6 c4dc  .F..............
	0x0240:  0a75 addf 2c11 98ba b7d4 6cfd f662 2da5  .u..,.....l..b-.
	0x0250:  c3cf 9c31 cc45 9b95 f0e3 8438 30ce 463e  ...1.E.....80.F>
	0x0260:  410b 42e1 71f1 c85f 40b5 f075 8c83 f847  A.B.q.._@..u...G
	0x0270:  9927 68a2 7da4 91a0 a904 648d c3c8 30e3  .'h.}.....d...0.
	0x0280:  c2a7 f97c 85a0 eae6 95b5 d668 a698 a420  ...|.......h....
	0x0290:  0eb2 b031 25ef 9a4d f287 5dc2 dcc6 2216  ...1%..M..]...".
	0x02a0:  48a3 bb87 0254 e6e9 4a26 10da dbf2 eda1  H....T..J&......
	0x02b0:  cad9 f21f 9057 44b3 3e0b ae61 80b9 4166  .....WD.>..a..Af
	0x02c0:  476d 9836 3bb7 80ee 38cc 761a 606c 1a48  Gm.6;...8.v.`l.H
	0x02d0:  cc6a 74f9 4c03 21ba b5bd 388d e593 61f2  .jt.L.!...8...a.
	0x02e0:  34c7 a552 a7e1 fb97 5fbb 1f19 085c 811e  4..R...._....\..
	0x02f0:  b6c4 3d94 9564 ff68 5847 a789 162b 0e77  ..=..d.hXG...+.w
	0x0300:  ef22 d084 9499 dd0c 00ab fa7c cb79 c351  .".........|.y.Q
	0x0310:  6497 1a0b a772 8b79 9daf 437c 6178 72c3  d....r.y..C|axr.
	0x0320:  8617 d621 6948 5dcb c8d9 7544 4eaf f783  ...!iH]...uDN...
	0x0330:  84f9 c8d1 22c9 4042 4c2d 4b7d 4392 32e6  ....".@BL-K}C.2.
	0x0340:  fc19 9354 f6db 4568 e16d 822a 347d f49d  ...T..Eh.m.*4}..
	0x0350:  865a 3db6 6609 4407 20e3 6808 22f6 13a4  .Z=.f.D...h."...
	0x0360:  b3cc 0788 e401 b72f 445f fc92 d038 689a  ......./D_...8h.
	0x0370:  f26b 0690 5e0b 74fc 8983 f60f 6892 e0c3  .k..^.t.....h...
	0x0380:  cc38 7fb2 8e81 66aa 2ea0 b828 e986 06c4  .8....f....(....
	0x0390:  8ffb f43f 0811 ac75 eb2b 606e 5a62 6a8c  ...?...u.+`nZbj.
	0x03a0:  d7ac 0266 cf8e d489 138a 546a 7831 e86a  ...f......Tjx1.j
	0x03b0:  679f 9814 1ca3 2af0 67a1 5102 bb85 4575  g.....*.g.Q...Eu
	0x03c0:  bcd2 f770 31c5 2fb4 1ed0 8e0f 2735 48a7  ...p1./.....'5H.
	0x03d0:  674a c7ce 6f45 3f98 34fd 2a6e cb51 0f9f  gJ..oE?.4.*n.Q..
	0x03e0:  9e87 28da 7924 ef73 ac75 d13a 0f4f c163  ..(.y$.s.u.:.O.c
	0x03f0:  1c7f ac18 729a a59d 2b5a 199d 43f2 9559  ....r...+Z..C..Y
	0x0400:  3ca8 977f 0b08 8039 1d57 887a 5767 49e6  <......9.W.zWgI.
	0x0410:  1efb ddb4 794a d9e3 6e14 151e 7d26 fe65  ....yJ..n...}&.e
	0x0420:  2e86 f0eb c5c2 8a1f 5e0e 5c5b b730 8c28  ........^.\[.0.(
	0x0430:  84dd a51c 6c52 680b db48 da4f 2d57 4137  ....lRh..H.O-WA7
	0x0440:  b546 71f0 0e55 7153 200a 7e9a 6cf8 3203  .Fq..UqS..~.l.2.
	0x0450:  39b0 e649 0a56 f7ef db69 5d4b c549 7a26  9..I.V...i]K.Iz&
	0x0460:  c083 5c37 a972 6c7a 4650 5296 2fde d90c  ..\7.rlzFPR./...
	0x0470:  9aab 0d1d 4c1c d0ef 427d 05a3 89fd 6585  ....L...B}....e.
	0x0480:  9f6e fbcc 744c dc56 00b5 ce35 7ca8 9b5d  .n..tL.V...5|..]
	0x0490:  1213 fb23 30f9 ff2d d4c7 0a20 668b 1c86  ...#0..-....f...
	0x04a0:  79d0 ba04 24b9 3767 c1db 0287 03d9 01b0  y...$.7g........
	0x04b0:  3ce4 dee2 48ec 0697 9a80 ee3c 56e0 2d7b  <...H......<V.-{
	0x04c0:  1eb5 ab8f 2ffd 90b2 1ab6 6cc0 9eb2 7713  ..../.....l...w.
	0x04d0:  2ee6 3ce3 d1bc e628 79be c95c e631 9fba  ..<....(y..\.1..
	0x04e0:  8c16 6de1 9c87 e92e 88e7 37d1 7b51 0914  ..m.......7.{Q..
	0x04f0:  a297 f9ad 8a1d e8bd b643 5642 9472 1384  .........CVB.r..
	0x0500:  7c76 e45f 7a1d 3940 a7f4 1b8c fab5       |v._z.9@......
11:34:05.403788 08:00:27:d6:7b:61 (oui Unknown) > 84:1b:77:72:a3:8f (oui Unknown), ethertype IPv4 (0x0800), length 150: (tos 0x10, ttl 64, id 38937, offset 0, flags [DF], proto TCP (6), length 136)
    dev1-10.ssh > 192.168.1.50.3616: Flags [P.], cksum 0x8472 (incorrect -> 0xdc23), seq 8560:8656, ack 1, win 501, length 96
	0x0000:  841b 7772 a38f 0800 27d6 7b61 0800 4510  ..wr....'.{a..E.
	0x0010:  0088 9819 4000 4006 1e4f c0a8 0175 c0a8  ....@.@..O...u..
	0x0020:  0132 0016 0e20 a55d eb2c bf7c ff53 5018  .2.....].,.|.SP.
	0x0030:  01f5 8472 0000 8b60 75ce 52e6 9dd8 a7ee  ...r...`u.R.....
	0x0040:  96e6 3fab a269 660e 745d 1afe 0963 a415  ..?..if.t]...c..
	0x0050:  ecaa 70ff ad4b f044 571d 583b fc3d a1cd  ..p..K.DW.X;.=..
	0x0060:  2ca5 869c 4fb4 b9a3 19d7 cc79 1b94 76f7  ,...O......y..v.
	0x0070:  8bb9 b70d 28a3 a83c 6e9f b2d7 00a7 b80c  ....(..<n.......
	0x0080:  e626 6284 37e9 e511 6014 d648 8b3a 7320  .&b.7...`..H.:s.
	0x0090:  f28d 00d2 406a                           ....@j
11:34:05.405481 56:7e:a4:d8:79:25 (oui Unknown) > 08:00:27:d6:7b:61 (oui Unknown), ethertype IPv4 (0x0800), length 86: (tos 0x0, ttl 64, id 13570, offset 0, flags [none], proto UDP (17), length 72)
    192.168.1.11.domain > dev1-10.49169: 32701 NXDomain 0/0/0 (44)
	0x0000:  0800 27d6 7b61 567e a4d8 7925 0800 4500  ..'.{aV~..y%..E.
	0x0010:  0048 3502 0000 4011 c1d2 c0a8 010b c0a8  .H5...@.........
	0x0020:  0175 0035 c011 0034 fa81 7fbd 8183 0001  .u.5...4........
	0x0030:  0000 0000 0000 0331 3230 0131 0331 3638  .......120.1.168
	0x0040:  0331 3932 0769 6e2d 6164 6472 0461 7270  .192.in-addr.arp
	0x0050:  6100 000c 0001                           a.....
11:34:05.405671 08:00:27:d6:7b:61 (oui Unknown) > 56:7e:a4:d8:79:25 (oui Unknown), ethertype IPv4 (0x0800), length 85: (tos 0x0, ttl 64, id 65322, offset 0, flags [DF], proto UDP (17), length 71)
    dev1-10.42548 > 192.168.1.11.domain: 48217+ PTR? 37.1.168.192.in-addr.arpa. (43)
	0x0000:  567e a4d8 7925 0800 27d6 7b61 0800 4500  V~..y%..'.{a..E.
	0x0010:  0047 ff2a 4000 4011 b7aa c0a8 0175 c0a8  .G.*@.@......u..
	0x0020:  010b a634 0035 0033 8415 bc59 0100 0001  ...4.5.3...Y....
	0x0030:  0000 0000 0000 0233 3701 3103 3136 3803  .......37.1.168.
	0x0040:  3139 3207 696e 2d61 6464 7204 6172 7061  192.in-addr.arpa
	0x0050:  0000 0c00 01                             .....
11:34:05.406436 56:7e:a4:d8:79:25 (oui Unknown) > 08:00:27:d6:7b:61 (oui Unknown), ethertype IPv4 (0x0800), length 85: (tos 0x0, ttl 64, id 13571, offset 0, flags [none], proto UDP (17), length 71)
    192.168.1.11.domain > dev1-10.42548: 48217 NXDomain 0/0/0 (43)
	0x0000:  0800 27d6 7b61 567e a4d8 7925 0800 4500  ..'.{aV~..y%..E.
	0x0010:  0047 3503 0000 4011 c1d2 c0a8 010b c0a8  .G5...@.........
	0x0020:  0175 0035 a634 0033 14b2 bc59 8183 0001  .u.5.4.3...Y....
	0x0030:  0000 0000 0000 0233 3701 3103 3136 3803  .......37.1.168.
	0x0040:  3139 3207 696e 2d61 6464 7204 6172 7061  192.in-addr.arpa
	0x0050:  0000 0c00 01                             .....
11:34:05.406601 08:00:27:d6:7b:61 (oui Unknown) > 56:7e:a4:d8:79:25 (oui Unknown), ethertype IPv4 (0x0800), length 86: (tos 0x0, ttl 64, id 65323, offset 0, flags [DF], proto UDP (17), length 72)
    dev1-10.41133 > 192.168.1.11.domain: 8288+ PTR? 103.1.168.192.in-addr.arpa. (44)
	0x0000:  567e a4d8 7925 0800 27d6 7b61 0800 4500  V~..y%..'.{a..E.
	0x0010:  0048 ff2b 4000 4011 b7a8 c0a8 0175 c0a8  .H.+@.@......u..
	0x0020:  010b a0ad 0035 0034 8416 2060 0100 0001  .....5.4...`....
	0x0030:  0000 0000 0000 0331 3033 0131 0331 3638  .......103.1.168
	0x0040:  0331 3932 0769 6e2d 6164 6472 0461 7270  .192.in-addr.arp
	0x0050:  6100 000c 0001                           a.....
11:34:05.407402 56:7e:a4:d8:79:25 (oui Unknown) > 08:00:27:d6:7b:61 (oui Unknown), ethertype IPv4 (0x0800), length 86: (tos 0x0, ttl 64, id 13572, offset 0, flags [none], proto UDP (17), length 72)
    192.168.1.11.domain > dev1-10.41133: 8288 NXDomain 0/0/0 (44)
	0x0000:  0800 27d6 7b61 567e a4d8 7925 0800 4500  ..'.{aV~..y%..E.
	0x0010:  0048 3504 0000 4011 c1d0 c0a8 010b c0a8  .H5...@.........
	0x0020:  0175 0035 a0ad 0034 7b40 2060 8183 0001  .u.5...4{@.`....
	0x0030:  0000 0000 0000 0331 3033 0131 0331 3638  .......103.1.168
	0x0040:  0331 3932 0769 6e2d 6164 6472 0461 7270  .192.in-addr.arp
	0x0050:  6100 000c 0001                           a.....
11:34:05.407566 08:00:27:d6:7b:61 (oui Unknown) > 56:7e:a4:d8:79:25 (oui Unknown), ethertype IPv4 (0x0800), length 85: (tos 0x0, ttl 64, id 65324, offset 0, flags [DF], proto UDP (17), length 71)
    dev1-10.41224 > 192.168.1.11.domain: 26455+ PTR? 35.1.168.192.in-addr.arpa. (43)
	0x0000:  567e a4d8 7925 0800 27d6 7b61 0800 4500  V~..y%..'.{a..E.
	0x0010:  0047 ff2c 4000 4011 b7a8 c0a8 0175 c0a8  .G.,@.@......u..
	0x0020:  010b a108 0035 0033 8415 6757 0100 0001  .....5.3..gW....
	0x0030:  0000 0000 0000 0233 3501 3103 3136 3803  .......35.1.168.
	0x0040:  3139 3207 696e 2d61 6464 7204 6172 7061  192.in-addr.arpa
	0x0050:  0000 0c00 01                             .....
11:34:05.408247 56:7e:a4:d8:79:25 (oui Unknown) > 08:00:27:d6:7b:61 (oui Unknown), ethertype IPv4 (0x0800), length 85: (tos 0x0, ttl 64, id 13573, offset 0, flags [none], proto UDP (17), length 71)
    192.168.1.11.domain > dev1-10.41224: 26455 NXDomain 0/0/0 (43)
	0x0000:  0800 27d6 7b61 567e a4d8 7925 0800 4500  ..'.{aV~..y%..E.
	0x0010:  0047 3505 0000 4011 c1d0 c0a8 010b c0a8  .G5...@.........
	0x0020:  0175 0035 a108 0033 70e0 6757 8183 0001  .u.5...3p.gW....
	0x0030:  0000 0000 0000 0233 3501 3103 3136 3803  .......35.1.168.
	0x0040:  3139 3207 696e 2d61 6464 7204 6172 7061  192.in-addr.arpa
	0x0050:  0000 0c00 01                             .....
11:34:05.408494 84:1b:77:72:a3:8f (oui Unknown) > 08:00:27:d6:7b:61 (oui Unknown), ethertype IPv4 (0x0800), length 54: (tos 0x0, ttl 128, id 14509, offset 0, flags [DF], proto TCP (6), length 40)
    192.168.1.50.3616 > dev1-10.ssh: Flags [.], cksum 0x9819 (correct), ack 8656, win 13778, length 0
	0x0000:  0800 27d6 7b61 841b 7772 a38f 0800 4500  ..'.{a..wr....E.
	0x0010:  0028 38ad 4000 8006 3e2b c0a8 0132 c0a8  .(8.@...>+...2..
	0x0020:  0175 0e20 0016 bf7c ff53 a55d eb8c 5010  .u.....|.S.]..P.
	0x0030:  35d2 9819 0000                           5.....
11:34:05.408531 08:00:27:d6:7b:61 (oui Unknown) > 56:7e:a4:d8:79:25 (oui Unknown), ethertype IPv4 (0x0800), length 84: (tos 0x0, ttl 64, id 65325, offset 0, flags [DF], proto UDP (17), length 70)
    dev1-10.51520 > 192.168.1.11.domain: 18738+ PTR? 5.1.168.192.in-addr.arpa. (42)
	0x0000:  567e a4d8 7925 0800 27d6 7b61 0800 4500  V~..y%..'.{a..E.
	0x0010:  0046 ff2d 4000 4011 b7a8 c0a8 0175 c0a8  .F.-@.@......u..
	0x0020:  010b c940 0035 0032 8414 4932 0100 0001  ...@.5.2..I2....
	0x0030:  0000 0000 0000 0135 0131 0331 3638 0331  .......5.1.168.1
	0x0040:  3932 0769 6e2d 6164 6472 0461 7270 6100  92.in-addr.arpa.
	0x0050:  000c 0001                                ....
11:34:05.409190 56:7e:a4:d8:79:25 (oui Unknown) > 08:00:27:d6:7b:61 (oui Unknown), ethertype IPv4 (0x0800), length 84: (tos 0x0, ttl 64, id 13574, offset 0, flags [none], proto UDP (17), length 70)
    192.168.1.11.domain > dev1-10.51520: 18738 NXDomain 0/0/0 (42)
	0x0000:  0800 27d6 7b61 567e a4d8 7925 0800 4500  ..'.{aV~..y%..E.
	0x0010:  0046 3506 0000 4011 c1d0 c0a8 010b c0a8  .F5...@.........
	0x0020:  0175 0035 c940 0032 5c0e 4932 8183 0001  .u.5.@.2\.I2....
	0x0030:  0000 0000 0000 0135 0131 0331 3638 0331  .......5.1.168.1
	0x0040:  3932 0769 6e2d 6164 6472 0461 7270 6100  92.in-addr.arpa.
	0x0050:  000c 0001                                ....
11:34:05.409343 08:00:27:d6:7b:61 (oui Unknown) > 56:7e:a4:d8:79:25 (oui Unknown), ethertype IPv4 (0x0800), length 85: (tos 0x0, ttl 64, id 65326, offset 0, flags [DF], proto UDP (17), length 71)
    dev1-10.38213 > 192.168.1.11.domain: 36615+ PTR? 36.1.168.192.in-addr.arpa. (43)
	0x0000:  567e a4d8 7925 0800 27d6 7b61 0800 4500  V~..y%..'.{a..E.
	0x0010:  0047 ff2e 4000 4011 b7a6 c0a8 0175 c0a8  .G..@.@......u..
	0x0020:  010b 9545 0035 0033 8415 8f07 0100 0001  ...E.5.3........
	0x0030:  0000 0000 0000 0233 3601 3103 3136 3803  .......36.1.168.
	0x0040:  3139 3207 696e 2d61 6464 7204 6172 7061  192.in-addr.arpa
	0x0050:  0000 0c00 01                             .....
11:34:05.410033 56:7e:a4:d8:79:25 (oui Unknown) > 08:00:27:d6:7b:61 (oui Unknown), ethertype IPv4 (0x0800), length 85: (tos 0x0, ttl 64, id 13575, offset 0, flags [none], proto UDP (17), length 71)
    192.168.1.11.domain > dev1-10.38213: 36615 NXDomain 0/0/0 (43)
	0x0000:  0800 27d6 7b61 567e a4d8 7925 0800 4500  ..'.{aV~..y%..E.
	0x0010:  0047 3507 0000 4011 c1ce c0a8 010b c0a8  .G5...@.........
	0x0020:  0175 0035 9545 0033 53f3 8f07 8183 0001  .u.5.E.3S.......
	0x0030:  0000 0000 0000 0233 3601 3103 3136 3803  .......36.1.168.
	0x0040:  3139 3207 696e 2d61 6464 7204 6172 7061  192.in-addr.arpa
	0x0050:  0000 0c00 01                             .....
11:34:05.410181 08:00:27:d6:7b:61 (oui Unknown) > 56:7e:a4:d8:79:25 (oui Unknown), ethertype IPv4 (0x0800), length 85: (tos 0x0, ttl 64, id 65327, offset 0, flags [DF], proto UDP (17), length 71)
    dev1-10.41281 > 192.168.1.11.domain: 62582+ PTR? 56.1.168.192.in-addr.arpa. (43)
	0x0000:  567e a4d8 7925 0800 27d6 7b61 0800 4500  V~..y%..'.{a..E.
	0x0010:  0047 ff2f 4000 4011 b7a5 c0a8 0175 c0a8  .G./@.@......u..
	0x0020:  010b a141 0035 0033 8415 f476 0100 0001  ...A.5.3...v....
	0x0030:  0000 0000 0000 0235 3601 3103 3136 3803  .......56.1.168.
	0x0040:  3139 3207 696e 2d61 6464 7204 6172 7061  192.in-addr.arpa
	0x0050:  0000 0c00 01                             .....
11:34:05.410819 56:7e:a4:d8:79:25 (oui Unknown) > 08:00:27:d6:7b:61 (oui Unknown), ethertype IPv4 (0x0800), length 85: (tos 0x0, ttl 64, id 13576, offset 0, flags [none], proto UDP (17), length 71)
    192.168.1.11.domain > dev1-10.41281: 62582 NXDomain 0/0/0 (43)
	0x0000:  0800 27d6 7b61 567e a4d8 7925 0800 4500  ..'.{aV~..y%..E.
	0x0010:  0047 3508 0000 4011 c1cd c0a8 010b c0a8  .G5...@.........
	0x0020:  0175 0035 a141 0033 e285 f476 8183 0001  .u.5.A.3...v....
	0x0030:  0000 0000 0000 0235 3601 3103 3136 3803  .......56.1.168.
	0x0040:  3139 3207 696e 2d61 6464 7204 6172 7061  192.in-addr.arpa
	0x0050:  0000 0c00 01                             .....
11:34:05.410968 08:00:27:d6:7b:61 (oui Unknown) > 56:7e:a4:d8:79:25 (oui Unknown), ethertype IPv4 (0x0800), length 85: (tos 0x0, ttl 64, id 65328, offset 0, flags [DF], proto UDP (17), length 71)
    dev1-10.54569 > 192.168.1.11.domain: 7040+ PTR? 60.1.168.192.in-addr.arpa. (43)
	0x0000:  567e a4d8 7925 0800 27d6 7b61 0800 4500  V~..y%..'.{a..E.
	0x0010:  0047 ff30 4000 4011 b7a4 c0a8 0175 c0a8  .G.0@.@......u..
	0x0020:  010b d529 0035 0033 8415 1b80 0100 0001  ...).5.3........
	0x0030:  0000 0000 0000 0236 3001 3103 3136 3803  .......60.1.168.
	0x0040:  3139 3207 696e 2d61 6464 7204 6172 7061  192.in-addr.arpa
	0x0050:  0000 0c00 01                             .....
11:34:05.411300 6c:3b:6b:0f:d1:c8 (oui Unknown) > Broadcast, ethertype ARP (0x0806), length 60: Ethernet (len 6), IPv4 (len 4), Request who-has 192.168.1.49 tell 192.168.1.212, length 46
	0x0000:  ffff ffff ffff 6c3b 6b0f d1c8 0806 0001  ......l;k.......
	0x0010:  0800 0604 0001 6c3b 6b0f d1c8 c0a8 01d4  ......l;k.......
	0x0020:  0000 0000 0000 c0a8 0131 0000 0000 0000  .........1......
	0x0030:  0000 0000 0000 0000 0000 0000            ............
11:34:05.411637 56:7e:a4:d8:79:25 (oui Unknown) > 08:00:27:d6:7b:61 (oui Unknown), ethertype IPv4 (0x0800), length 85: (tos 0x0, ttl 64, id 13577, offset 0, flags [none], proto UDP (17), length 71)
    192.168.1.11.domain > dev1-10.54569: 7040 NXDomain 0/0/0 (43)
	0x0000:  0800 27d6 7b61 567e a4d8 7925 0800 4500  ..'.{aV~..y%..E.
	0x0010:  0047 3509 0000 4011 c1cc c0a8 010b c0a8  .G5...@.........
	0x0020:  0175 0035 d529 0033 8d93 1b80 8183 0001  .u.5.).3........
	0x0030:  0000 0000 0000 0236 3001 3103 3136 3803  .......60.1.168.
	0x0040:  3139 3207 696e 2d61 6464 7204 6172 7061  192.in-addr.arpa
	0x0050:  0000 0c00 01                             .....
11:34:05.411828 08:00:27:d6:7b:61 (oui Unknown) > 56:7e:a4:d8:79:25 (oui Unknown), ethertype IPv4 (0x0800), length 85: (tos 0x0, ttl 64, id 65329, offset 0, flags [DF], proto UDP (17), length 71)
    dev1-10.57996 > 192.168.1.11.domain: 5261+ PTR? 66.1.168.192.in-addr.arpa. (43)
	0x0000:  567e a4d8 7925 0800 27d6 7b61 0800 4500  V~..y%..'.{a..E.
	0x0010:  0047 ff31 4000 4011 b7a3 c0a8 0175 c0a8  .G.1@.@......u..
	0x0020:  010b e28c 0035 0033 8415 148d 0100 0001  .....5.3........
	0x0030:  0000 0000 0000 0236 3601 3103 3136 3803  .......66.1.168.
	0x0040:  3139 3207 696e 2d61 6464 7204 6172 7061  192.in-addr.arpa
	0x0050:  0000 0c00 01                             .....
11:34:05.412174 08:00:27:d6:7b:61 (oui Unknown) > 84:1b:77:72:a3:8f (oui Unknown), ethertype IPv4 (0x0800), length 2974: (tos 0x10, ttl 64, id 38938, offset 0, flags [DF], proto TCP (6), length 2960)
    dev1-10.ssh > 192.168.1.50.3616: Flags [P.], cksum 0x8f7a (incorrect -> 0x04c1), seq 8656:11576, ack 1, win 501, length 2920
	0x0000:  841b 7772 a38f 0800 27d6 7b61 0800 4510  ..wr....'.{a..E.
	0x0010:  0b90 981a 4000 4006 1346 c0a8 0175 c0a8  ....@.@..F...u..
	0x0020:  0132 0016 0e20 a55d eb8c bf7c ff53 5018  .2.....]...|.SP.
	0x0030:  01f5 8f7a 0000 8b0a da52 1834 4813 5b64  ...z.....R.4H.[d
	0x0040:  ea64 dd43 c329 dc27 ecb5 0a51 fe05 c2cd  .d.C.).'...Q....
	0x0050:  ae9f 04eb d37c cd97 d4d8 518b 8e58 cbbe  .....|....Q..X..
	0x0060:  6715 866f 935b 6387 d3ae d4a6 43dd 0861  g..o.[c.....C..a
	0x0070:  0622 7dc6 7af2 bcb7 b7da 7220 4aeb 0356  ."}.z.....r.J..V
	0x0080:  e679 c2e4 532a 8a26 0cc3 42b5 378a 3fb3  .y..S*.&..B.7.?.
	0x0090:  4f27 9c61 680c 6159 ac83 a895 277f e710  O'.ah.aY....'...
	0x00a0:  2163 06a2 6587 42f5 bae0 afd5 1046 2de6  !c..e.B......F-.
	0x00b0:  a887 88d8 4297 4c2e 2e8f c06e 1cde 00fb  ....B.L....n....
	0x00c0:  90ee 58ef 29f2 fc99 24ce 8e82 da8a e99b  ..X.)...$.......
	0x00d0:  69d3 7d7a 0d00 8b29 3267 6884 de4d adc8  i.}z...)2gh..M..
	0x00e0:  fa63 3c12 fd7b eeae f02e 80e6 5947 542b  .c<..{......YGT+
	0x00f0:  ed34 b45e b8ad 37d6 2d02 a337 c071 da74  .4.^..7.-..7.q.t
	0x0100:  1c7e 01b0 4b37 9de0 a8d4 68d4 fa1b 054f  .~..K7....h....O
	0x0110:  b30a ed3a ae4f e7fd 4744 af03 611d 4fca  ...:.O..GD..a.O.
	0x0120:  b52b 229b f707 b90b b25c 4890 8532 5219  .+"......\H..2R.
	0x0130:  7301 784b 031e f51e 8f6c 303a aab2 19c2  s.xK.....l0:....
	0x0140:  dffd 704d cbd9 e957 f2ca 2841 c765 923c  ..pM...W..(A.e.<
	0x0150:  ffc1 935f d558 d353 3abc bc85 61fa 2eb5  ..._.X.S:...a...
	0x0160:  a5f1 056b 6c05 fae4 f587 40b6 49fe 135f  ...kl.....@.I.._
	0x0170:  1537 0958 292f cf72 ba34 3444 8ab3 eb0b  .7.X)/.r.44D....
	0x0180:  250c d580 9a8b dcf8 9b2c 606c 613e db14  %........,`la>..
	0x0190:  2847 82b1 bc66 f9f2 7d19 4825 5529 7a03  (G...f..}.H%U)z.
	0x01a0:  949b 796a cddb b290 c654 287f dd72 2ea0  ..yj.....T(..r..
	0x01b0:  106f 9b15 c572 8b7b 7506 415a 91d3 abb3  .o...r.{u.AZ....
	0x01c0:  f1ef dad9 1c62 2d79 32c0 23eb babc 2ec2  .....b-y2.#.....
	0x01d0:  2ebc 6a50 6603 25d3 1886 e250 1cac fcb5  ..jPf.%....P....
	0x01e0:  1a48 c072 c6ef a234 e597 5463 ff45 28f0  .H.r...4..Tc.E(.
	0x01f0:  3475 d6be d6e7 2bea bc20 e878 6259 6849  4u....+....xbYhI
	0x0200:  ebe1 d989 477c 834e 0ef7 94ba f162 3355  ....G|.N.....b3U
	0x0210:  5655 8794 57af 0051 a38d c124 829f 3560  VU..W..Q...$..5`
	0x0220:  ed93 3295 a916 a62d a5f1 52b5 667e 79d1  ..2....-..R.f~y.
	0x0230:  77f7 a37d 60d5 0802 d25a f291 e802 21e8  w..}`....Z....!.
	0x0240:  e32f 05e5 2bde 7967 23de 355b 3ae7 3658  ./..+.yg#.5[:.6X
	0x0250:  806c 780a ea89 ca50 e3d9 3a15 79de 2942  .lx....P..:.y.)B
	0x0260:  b64f e982 0060 6e92 3616 09ec a0a2 bfbd  .O...`n.6.......
	0x0270:  655b 7aa0 a345 048e 559c 81a8 092f 8200  e[z..E..U..../..
	0x0280:  5bb4 6524 3244 e28f 5297 6364 2857 0b54  [.e$2D..R.cd(W.T
	0x0290:  4969 e9a8 2b0e e536 825c d82a cf6a a645  Ii..+..6.\.*.j.E
	0x02a0:  5454 48e6 e41f 15c1 966a 4341 47d8 f1bf  TTH......jCAG...
	0x02b0:  8dae 9706 dc1e bd53 0625 a0e0 81ac 3c2d  .......S.%....<-
	0x02c0:  1093 9d7f 8aa1 89ed f3fc 8141 b06a 2861  ...........A.j(a
	0x02d0:  0a86 3b28 1451 febe c4f7 458a 2fc9 6bb2  ..;(.Q....E./.k.
	0x02e0:  4b89 dc30 93d8 e7b9 80ee b350 405f edc3  K..0.......P@_..
	0x02f0:  a2de f025 3d7a 46bc a1dd b41d 6d4b 4a89  ...%=zF.....mKJ.
	0x0300:  222e fb26 d190 c100 38eb 9b9a fc3a fade  "..&....8....:..
	0x0310:  1196 35b7 41a8 8b32 35d1 a5f5 7a26 d06e  ..5.A..25...z&.n
	0x0320:  7152 a53f 1638 bf7b 2d06 e7e3 fbb3 695e  qR.?.8.{-.....i^
	0x0330:  1d1c 3752 8e66 af03 d9d2 9df2 6b63 0f31  ..7R.f......kc.1
	0x0340:  201c 96bb 276c a647 05f4 885d ac3c 7de8  ....'l.G...].<}.
	0x0350:  77f0 fcbb 545e 9a05 fca1 1fc4 6746 2178  w...T^......gF!x
	0x0360:  7b06 3865 d514 79d8 56cf bb6b ccb3 c840  {.8e..y.V..k...@
	0x0370:  6850 9ef2 e085 65a8 4b57 f354 793e 2489  hP....e.KW.Ty>$.
	0x0380:  8b3d 7736 1b38 8979 fe1d ae85 81ae c1a8  .=w6.8.y........
	0x0390:  e4c3 4b6e e4dc 7b79 0dbd 4521 aa5f 0782  ..Kn..{y..E!._..
	0x03a0:  c4f9 ec0f 548c d44f c121 ea13 eef7 8acd  ....T..O.!......
	0x03b0:  73e6 4694 7bda f2ec e7e1 38d5 2e47 16b1  s.F.{.....8..G..
	0x03c0:  4f6a 58d8 5de2 5bb7 16f9 f28e 5034 d741  OjX.].[.....P4.A
	0x03d0:  3f5b 3f79 44b1 cc91 f4ea b291 9fa6 d38c  ?[?yD...........
	0x03e0:  79da e933 87f3 5c40 a01e 58da 6f6e 14df  y..3..\@..X.on..
	0x03f0:  0587 c590 e430 9ca2 d570 592e bc33 045a  .....0...pY..3.Z
	0x0400:  502e 7e9b 4aa7 04b0 5b64 beca 1b86 b290  P.~.J...[d......
	0x0410:  9ba5 ec25 6998 7f42 3a28 376c 2522 938b  ...%i..B:(7l%"..
	0x0420:  5ed5 6c9f e446 2d46 7cc5 978d c356 fcad  ^.l..F-F|....V..
	0x0430:  8fcd 963f 3644 69e6 55e0 4de3 5966 ac7e  ...?6Di.U.M.Yf.~
	0x0440:  8dc2 8635 616a d0c0 96f1 131c 7327 8fb0  ...5aj......s'..
	0x0450:  28cf d978 712f 97ed ca40 ed44 6099 e111  (..xq/...@.D`...
	0x0460:  668b b70e a0d2 dbd4 8d89 d466 ef56 128f  f..........f.V..
	0x0470:  18e9 dd6a 5c07 8657 fa53 b85b fc70 b7d8  ...j\..W.S.[.p..
	0x0480:  ec8f dcec 3ed8 a8a3 8b86 f08e ac3e a823  ....>........>.#
	0x0490:  5bbe 30c9 91a5 9639 f6cc 51cd eb1b 3e97  [.0....9..Q...>.
	0x04a0:  7548 b54b de29 998e 1a73 af24 229c 7728  uH.K.)...s.$".w(
	0x04b0:  ebac f9a6 37ae ff8d 0d6b 8129 ee5c ed34  ....7....k.).\.4
	0x04c0:  adae 94c1 a045 be90 5b3f 6f06 347c 95ab  .....E..[?o.4|..
	0x04d0:  32b2 a670 02c2 f23d 67b1 be24 0ae5 8dce  2..p...=g..$....
	0x04e0:  0ba6 fadb 52fe 8875 59b3 be89 5597 ce19  ....R..uY...U...
	0x04f0:  0847 a03c d94d cf5b 3207 d8ec a20e 3112  .G.<.M.[2.....1.
	0x0500:  d681 64f4 c3dd d287 f827 0f1b 2769 a856  ..d......'..'i.V
	0x0510:  250b 5bdb b4b1 72ce 9b9d 6b98 4945 5d51  %.[...r...k.IE]Q
	0x0520:  e9b9 aef4 ad35 35b8 b9d9 614a 1184 c39f  .....55...aJ....
	0x0530:  dd2d dc2f cf1e c44a 3cc6 db7b 1a6a a7cf  .-./...J<..{.j..
	0x0540:  6035 1a53 7179 fa19 22c7 5e25 3838 be51  `5.Sqy..".^%88.Q
	0x0550:  2456 aee9 aef7 5bba 76f1 8331 ecab 2a36  $V....[.v..1..*6
	0x0560:  8447 93ac adae eb08 dad7 4534 2607 bed6  .G........E4&...
	0x0570:  8fd0 35a3 f663 74f6 561f 1779 5508 cf32  ..5..ct.V..yU..2
	0x0580:  a17a 5d25 a50e 2c3e cce2 46ac 935d b86e  .z]%..,>..F..].n
	0x0590:  0a97 f9b7 204c 5c02 addb 0a01 3d8b dd93  .....L\.....=...
	0x05a0:  eedd 00a7 cf85 12bc c037 0a0d 0fcc 0efc  .........7......
	0x05b0:  f8e1 ead0 6956 d122 79b2 3428 ee5f d7ee  ....iV."y.4(._..
	0x05c0:  5fd4 65a5 0012 c265 4c8d 2c30 fab6 5b7d  _.e....eL.,0..[}
	0x05d0:  dd27 6a8f 4912 3057 86fc b5e1 3fed bbf3  .'j.I.0W....?...
	0x05e0:  fb30 eff5 5e2d a015 408b b209 98fc bb41  .0..^-..@......A
	0x05f0:  8b9c de04 1bdc e9e8 969b 1985 bb0c 6e55  ..............nU
	0x0600:  b1e5 6433 8a4e 2d23 7b4f d590 cbbb 71db  ..d3.N-#{O....q.
	0x0610:  343f c9b0 e352 a43f c9f8 ac29 07c2 d405  4?...R.?...)....
	0x0620:  1f0f 8e18 88fc e247 c89c 04f7 f1fc 1532  .......G.......2
	0x0630:  a1f2 90ce 53f5 f35f 7269 2a01 f775 9316  ....S.._ri*..u..
	0x0640:  16c7 a9eb d028 41d7 8b38 4532 0e90 a961  .....(A..8E2...a
	0x0650:  bc00 cc5f 668c d887 6a66 685c 9070 243c  ..._f...jfh\.p$<
	0x0660:  e89d 9a1c afff ea58 4c58 19d4 b41e 7cdc  .......XLX....|.
	0x0670:  ae8b d42a c3d3 d8a7 ffb0 67ef 4371 f351  ...*......g.Cq.Q
	0x0680:  6a1c 16e8 b6d1 96fd c7bf b43b 5625 5c32  j..........;V%\2
	0x0690:  f8e0 21d9 8387 ed68 1fb5 b713 c707 7384  ..!....h......s.
	0x06a0:  58f7 f0fc a8a4 e159 7f0d 0455 c947 28b3  X......Y...U.G(.
	0x06b0:  cc17 83bb ea2a 940b cbf8 1712 54a9 6a7c  .....*......T.j|
	0x06c0:  330e 2d3f 8f6f 14ac 2a99 2704 7c37 2c3b  3.-?.o..*.'.|7,;
	0x06d0:  b93c 312e 492c 2bee b823 6885 1b78 52e3  .<1.I,+..#h..xR.
	0x06e0:  af64 270b c031 ddc5 4da1 845b eb54 218b  .d'..1..M..[.T!.
	0x06f0:  6911 68b8 f64f debb 8b75 f9bf 22ef efa1  i.h..O...u.."...
	0x0700:  6172 ae9f d477 4cfb f82a 3aad b868 774c  ar...wL..*:..hwL
	0x0710:  931f d197 fcd2 0945 0ab3 f4d7 f5e3 f636  .......E.......6
	0x0720:  7763 5aae a69c f8d3 6b26 d517 a3a0 d1cd  wcZ.....k&......
	0x0730:  184a a6f4 a2d2 2df9 d5e7 b21c 0fcf 2c6d  .J....-.......,m
	0x0740:  1388 fdd0 6483 5c40 a995 beb9 95bd 05cd  ....d.\@........
	0x0750:  99dd b44a 0043 f24c 8b33 a8c7 3c67 4ec7  ...J.C.L.3..<gN.
	0x0760:  883c 4670 d017 a790 e8b6 6652 f56f 76f4  .<Fp......fR.ov.
	0x0770:  e6bc acc5 7d09 96a6 e7fb e3d7 8df7 9de5  ....}...........
	0x0780:  5a6b 8390 9830 bb6e 01ae 4262 28bc 6b5c  Zk...0.n..Bb(.k\
	0x0790:  75d7 4b01 d82e dda2 37df bb4f 14cf 14f8  u.K.....7..O....
	0x07a0:  deb9 88f4 ae92 d8fd c246 8b64 7f3f e1f5  .........F.d.?..
	0x07b0:  2155 ef32 1ab9 e8cb 7916 645b a829 96db  !U.2....y.d[.)..
	0x07c0:  8ff0 c97f 1026 8ee8 9dd4 bbd5 35fc a39f  .....&......5...
	0x07d0:  bb84 2e7c c7ba 094c b025 5286 36d5 78aa  ...|...L.%R.6.x.
	0x07e0:  f3a7 c189 b4ab 139e 33e9 e9b8 d4c8 7291  ........3.....r.
	0x07f0:  cc56 2e61 f1fe f57e 9fe6 f0a1 1d71 ca15  .V.a...~.....q..
	0x0800:  a7ed 9b3e a1eb 716c c44d ad7d 7f60 55af  ...>..ql.M.}.`U.
	0x0810:  565a 26f7 d54c a9bf 5e89 0c24 7387 da96  VZ&..L..^..$s...
	0x0820:  925b 0bad dfc2 e8e0 05f5 0426 65be d6c2  .[.........&e...
	0x0830:  06e5 231a 4e18 4b88 9a79 ab7c 3ac0 2cab  ..#.N.K..y.|:.,.
	0x0840:  f4c3 aee0 8e85 3c7a 28d3 9c74 aa27 7149  ......<z(..t.'qI
	0x0850:  2c2a 58eb 783a 4de0 322e 1d1c 51ff a4fe  ,*X.x:M.2...Q...
	0x0860:  8c60 a02a 2f50 d123 6115 dbeb 616d 0466  .`.*/P.#a...am.f
	0x0870:  a6cc b08d 0b08 03c4 15c8 2ebf 1377 c099  .............w..
	0x0880:  b606 183e fb40 02b4 8da7 694b 48c7 90a5  ...>.@....iKH...
	0x0890:  520e 2fab e8d3 a057 950a 5c58 a94f 0d97  R./....W..\X.O..
	0x08a0:  1434 03a6 29d0 e431 920a bf35 fb80 b119  .4..)..1...5....
	0x08b0:  e25a c04f 6d47 8e56 3b1b b45c da36 7003  .Z.OmG.V;..\.6p.
	0x08c0:  e606 afe0 6ee3 e81d f2fc d3ee 9090 e994  ....n...........
	0x08d0:  4a2f a81e 717c 9dd7 ad79 c53d 7ce8 8116  J/..q|...y.=|...
	0x08e0:  33c5 49f8 dc34 a629 b6cc dca8 c98d 6056  3.I..4.)......`V
	0x08f0:  e6df 6d2a 10dc f242 be88 4464 0ba3 41e6  ..m*...B..Dd..A.
	0x0900:  9c79 11ab 376b 591d b7dd 4582 a1ae 1a7f  .y..7kY...E.....
	0x0910:  3797 4a1b 80e4 5387 e8a8 72b8 5752 7a34  7.J...S...r.WRz4
	0x0920:  d1c5 5220 ec41 1f7a 7a91 970d f467 4a89  ..R..A.zz....gJ.
	0x0930:  e246 a179 d7bb b6dd a5ae f134 5e2c 6b68  .F.y.......4^,kh
	0x0940:  dd81 0aa1 f553 c548 b467 29aa 0ed4 32a6  .....S.H.g)...2.
	0x0950:  f36c 4c1d cfa3 b0b6 cbeb e316 8b46 5a1a  .lL..........FZ.
	0x0960:  8ee7 10fa 839f e2ec 3150 42f8 d212 55a0  ........1PB...U.
	0x0970:  70e3 dc21 8cc5 77b5 bf42 e005 48e9 b9a4  p..!..w..B..H...
	0x0980:  65e1 d369 cd6a 06aa 16a7 2bf0 12e2 1140  e..i.j....+....@
	0x0990:  7a35 bcfd 59d5 ac9c bc43 a969 9c41 6cc2  z5..Y....C.i.Al.
	0x09a0:  0239 b593 61e0 f433 dd57 3cc9 262d 71ba  .9..a..3.W<.&-q.
